{
  "_format": "hh-sol-artifact-1",
  "contractName": "NFTAuctionFactory",
  "sourceName": "contracts/NFTAuctionFactory.sol",
  "abi": [
    {
      "inputs": [
        {
          "internalType": "address",
          "name": "target",
          "type": "address"
        }
      ],
      "name": "AddressEmptyCode",
      "type": "error"
    },
    {
      "inputs": [
        {
          "internalType": "address",
          "name": "implementation",
          "type": "address"
        }
      ],
      "name": "ERC1967InvalidImplementation",
      "type": "error"
    },
    {
      "inputs": [],
      "name": "ERC1967NonPayable",
      "type": "error"
    },
    {
      "inputs": [],
      "name": "FailedCall",
      "type": "error"
    },
    {
      "inputs": [],
      "name": "InvalidInitialization",
      "type": "error"
    },
    {
      "inputs": [],
      "name": "NotInitializing",
      "type": "error"
    },
    {
      "inputs": [
        {
          "internalType": "address",
          "name": "owner",
          "type": "address"
        }
      ],
      "name": "OwnableInvalidOwner",
      "type": "error"
    },
    {
      "inputs": [
        {
          "internalType": "address",
          "name": "account",
          "type": "address"
        }
      ],
      "name": "OwnableUnauthorizedAccount",
      "type": "error"
    },
    {
      "inputs": [],
      "name": "UUPSUnauthorizedCallContext",
      "type": "error"
    },
    {
      "inputs": [
        {
          "internalType": "bytes32",
          "name": "slot",
          "type": "bytes32"
        }
      ],
      "name": "UUPSUnsupportedProxiableUUID",
      "type": "error"
    },
    {
      "anonymous": false,
      "inputs": [
        {
          "indexed": false,
          "internalType": "uint64",
          "name": "version",
          "type": "uint64"
        }
      ],
      "name": "Initialized",
      "type": "event"
    },
    {
      "anonymous": false,
      "inputs": [
        {
          "indexed": true,
          "internalType": "address",
          "name": "previousOwner",
          "type": "address"
        },
        {
          "indexed": true,
          "internalType": "address",
          "name": "newOwner",
          "type": "address"
        }
      ],
      "name": "OwnershipTransferred",
      "type": "event"
    },
    {
      "anonymous": false,
      "inputs": [
        {
          "indexed": true,
          "internalType": "address",
          "name": "implementation",
          "type": "address"
        }
      ],
      "name": "Upgraded",
      "type": "event"
    },
    {
      "inputs": [],
      "name": "UPGRADE_INTERFACE_VERSION",
      "outputs": [
        {
          "internalType": "string",
          "name": "",
          "type": "string"
        }
      ],
      "stateMutability": "view",
      "type": "function"
    },
    {
      "inputs": [
        {
          "internalType": "address",
          "name": "newImplementation",
          "type": "address"
        }
      ],
      "name": "batchUpgradeAuctions",
      "outputs": [],
      "stateMutability": "nonpayable",
      "type": "function"
    },
    {
      "inputs": [
        {
          "internalType": "uint256",
          "name": "_duration",
          "type": "uint256"
        },
        {
          "internalType": "uint256",
          "name": "_startPrice",
          "type": "uint256"
        },
        {
          "internalType": "address",
          "name": "_payTokenType",
          "type": "address"
        },
        {
          "internalType": "uint256",
          "name": "_tokenId",
          "type": "uint256"
        },
        {
          "internalType": "address",
          "name": "_nftContractAddress",
          "type": "address"
        }
      ],
      "name": "createNFTAuction",
      "outputs": [],
      "stateMutability": "nonpayable",
      "type": "function"
    },
    {
      "inputs": [],
      "name": "getAllAuctionAddresses",
      "outputs": [
        {
          "internalType": "address[]",
          "name": "",
          "type": "address[]"
        }
      ],
      "stateMutability": "view",
      "type": "function"
    },
    {
      "inputs": [],
      "name": "getAuctionCount",
      "outputs": [
        {
          "internalType": "uint256",
          "name": "",
          "type": "uint256"
        }
      ],
      "stateMutability": "view",
      "type": "function"
    },
    {
      "inputs": [
        {
          "internalType": "uint256",
          "name": "_auctionId",
          "type": "uint256"
        }
      ],
      "name": "getNFTAuctionAddress",
      "outputs": [
        {
          "internalType": "address",
          "name": "",
          "type": "address"
        }
      ],
      "stateMutability": "view",
      "type": "function"
    },
    {
      "inputs": [],
      "name": "getNFTAuctionImplementation",
      "outputs": [
        {
          "internalType": "address",
          "name": "",
          "type": "address"
        }
      ],
      "stateMutability": "view",
      "type": "function"
    },
    {
      "inputs": [
        {
          "internalType": "address",
          "name": "_nftAuctionImplementation",
          "type": "address"
        }
      ],
      "name": "initalize",
      "outputs": [],
      "stateMutability": "nonpayable",
      "type": "function"
    },
    {
      "inputs": [],
      "name": "nextAuctionId",
      "outputs": [
        {
          "internalType": "uint256",
          "name": "",
          "type": "uint256"
        }
      ],
      "stateMutability": "view",
      "type": "function"
    },
    {
      "inputs": [],
      "name": "nftAuctionImplementation",
      "outputs": [
        {
          "internalType": "address",
          "name": "",
          "type": "address"
        }
      ],
      "stateMutability": "view",
      "type": "function"
    },
    {
      "inputs": [],
      "name": "owner",
      "outputs": [
        {
          "internalType": "address",
          "name": "",
          "type": "address"
        }
      ],
      "stateMutability": "view",
      "type": "function"
    },
    {
      "inputs": [],
      "name": "proxiableUUID",
      "outputs": [
        {
          "internalType": "bytes32",
          "name": "",
          "type": "bytes32"
        }
      ],
      "stateMutability": "view",
      "type": "function"
    },
    {
      "inputs": [],
      "name": "renounceOwnership",
      "outputs": [],
      "stateMutability": "nonpayable",
      "type": "function"
    },
    {
      "inputs": [
        {
          "internalType": "address",
          "name": "auctionAddress",
          "type": "address"
        },
        {
          "internalType": "address",
          "name": "tokenAddress",
          "type": "address"
        },
        {
          "internalType": "address",
          "name": "priceFeedAddress",
          "type": "address"
        }
      ],
      "name": "setAuctionPriceFeed",
      "outputs": [],
      "stateMutability": "nonpayable",
      "type": "function"
    },
    {
      "inputs": [
        {
          "internalType": "address",
          "name": "_newImplementation",
          "type": "address"
        }
      ],
      "name": "setNFTAuctionImplementation",
      "outputs": [],
      "stateMutability": "nonpayable",
      "type": "function"
    },
    {
      "inputs": [
        {
          "internalType": "address",
          "name": "newOwner",
          "type": "address"
        }
      ],
      "name": "transferOwnership",
      "outputs": [],
      "stateMutability": "nonpayable",
      "type": "function"
    },
    {
      "inputs": [
        {
          "internalType": "address",
          "name": "newImplementation",
          "type": "address"
        },
        {
          "internalType": "bytes",
          "name": "data",
          "type": "bytes"
        }
      ],
      "name": "upgradeToAndCall",
      "outputs": [],
      "stateMutability": "payable",
      "type": "function"
    }
  ],
  "bytecode": "0x60a080604052346029573060805261168d908161002f8239608051818181610aa50152610b760152f35b600080fdfe6080604052600436101561001257600080fd5b6000803560e01c806313a6b5aa14610f915780632804617914610e6c5780633b11d9bd14610d4f5780634f1ef28614610afa57806352d1902d14610a925780635e44024b14610a6957806368b6350114610a695780636b10bf0a146104ac578063715018a6146104425780638da5cb5b1461040c5780638dc5fbf9146102305780639935f9a3146101e4578063aca4fa91146101b2578063ad3cb1cc14610165578063c44e664014610125578063f2fde38b146100f85763fc528482146100d857600080fd5b346100f557806003193601126100f5576020600254604051908152f35b80fd5b50346100f55760203660031901126100f557610122610115611088565b61011d61126c565b6111f6565b80f35b50346100f557806003193601126100f55760025460001981019190821161015157602082604051908152f35b634e487b7160e01b81526011600452602490fd5b50346100f557806003193601126100f557506101ae6040516101886040826110b9565b60058152640352e302e360dc1b602082015260405191829160208352602083019061110d565b0390f35b50346100f55760203660031901126100f5576020906004358152808252604060018060a01b0391205416604051908152f35b50346100f55760203660031901126100f5576101fe611088565b61020661126c565b6001600160a01b031661021a81151561118b565b6001600160601b0360a01b600154161760015580f35b50346100f55760203660031901126100f55761024a611088565b600080516020611638833981519152549060ff8260401c16159167ffffffffffffffff811680159081610404575b60011490816103fa575b1590816103f1575b506103e25767ffffffffffffffff19811660011760008051602061163883398151915255826103b5575b506102bd6112a2565b6102c56112a2565b6102ce336111f6565b6102d66112a2565b60016002556001600160a01b0316801561035e576001600160601b0360a01b60015416176001556103045780f35b68ff0000000000000000196000805160206116388339815191525416600080516020611638833981519152557fc7f505b2f371ae2175ee4913f4499e1f2633a7b5936321eed1cdaeb6115181d2602060405160018152a180f35b60405162461bcd60e51b815260206004820152602960248201527f496e76616c6964204e465441756374696f6e20696d706c656d656e746174696f6044820152686e206164647265737360b81b6064820152608490fd5b68ffffffffffffffffff1916680100000000000000011760008051602061163883398151915255386102b4565b63f92ee8a960e01b8452600484fd5b9050153861028a565b303b159150610282565b849150610278565b50346100f557806003193601126100f5576000805160206115f8833981519152546040516001600160a01b039091168152602090f35b50346100f557806003193601126100f55761045b61126c565b6000805160206115f883398151915280546001600160a01b0319811690915581906001600160a01b03167f8be0079c531659141344cd1fd0a4f28419497f9722a3daafe3b4186f6b6457e08280a380f35b50346100f55760a03660031901126100f557600435906024356104cd6110a3565b6084356001600160a01b0381169160643591839003610794578515610a195782156109d4578315610981576001600160a01b031694851561093c576040516331a9108f60e11b815260048101839052602081602481875afa90811561079857869161091d575b50336001600160a01b03909116036108cd5760405163020604bf60e21b815260048101839052602081602481875afa90811561079857869161089e575b506001600160a01b031630148015610828575b156107c6576002549060018060a01b0360015416966040516102c68082019082821067ffffffffffffffff8311176107b257899a83926105e49261133285396001600160a01b03909116815260406020820181905260009082015260600190565b039088f080156107a7576001600160a01b031695863b156107a35760405192631f43ef7560e11b84523360048501526024840152604483015260648201528260848201528360a48201523060c48201528160e482015285816101048183895af190811561079857869161077f575b50528360205260408420836001600160601b0360a01b825416179055610679600254611166565b600255813b1561077a578391606483926040519485938492632142170760e11b845233600485015288602485015260448401525af190811561076f578391610757575b5090604051906106cd6060836110b9565b602482527f43726561746564204e465441756374696f6e2070726f7879206174206164647260208301526332b9b99d60e11b6040830152610743604051809261072f602083019563319af33360e01b875260406024850152606484019061110d565b90604483015203601f1981018352826110b9565b51906a636f6e736f6c652e6c6f675afa5080f35b81610761916110b9565b61076c5781386106bc565b50fd5b6040513d85823e3d90fd5b505050fd5b81610789916110b9565b610794578438610652565b8480fd5b6040513d88823e3d90fd5b8780fd5b6040513d89823e3d90fd5b634e487b7160e01b8a52604160045260248afd5b60405162461bcd60e51b815260206004820152603460248201527f466163746f727920636f6e7472616374206973206e6f7420617070726f766564604482015273081d1bc81d1c985b9cd9995c881d1a194813919560621b6064820152608490fd5b5060405163e985e9c560e01b8152336004820152306024820152602081604481875afa90811561079857869161085f575b50610583565b90506020813d602011610896575b8161087a602093836110b9565b81010312610892575180151581036108925738610859565b8580fd5b3d915061086d565b6108c0915060203d6020116108c6575b6108b881836110b9565b8101906111d7565b38610570565b503d6108ae565b60405162461bcd60e51b815260206004820152602260248201527f43616c6c6572206973206e6f7420746865206f776e6572206f6620746865204e604482015261119560f21b6064820152608490fd5b610936915060203d6020116108c6576108b881836110b9565b38610533565b60405162461bcd60e51b815260206004820152601e60248201527f496e76616c69642070617920746f6b656e2074797065206164647265737300006044820152606490fd5b60405162461bcd60e51b815260206004820152602560248201527f5374617274207072696365206d7573742062652067726561746572207468616e604482015264207a65726f60d81b6064820152608490fd5b60405162461bcd60e51b815260206004820152601c60248201527f496e76616c6964204e465420636f6e74726163742061646472657373000000006044820152606490fd5b60405162461bcd60e51b815260206004820152602260248201527f4475726174696f6e206d7573742062652067726561746572207468616e207a65604482015261726f60f01b6064820152608490fd5b50346100f557806003193601126100f5576001546040516001600160a01b039091168152602090f35b50346100f557806003193601126100f5577f00000000000000000000000000000000000000000000000000000000000000006001600160a01b03163003610aeb5760206040516000805160206116188339815191528152f35b63703e46dd60e11b8152600490fd5b5060403660031901126100f557610b0f611088565b6024359067ffffffffffffffff8211610d4b5736602383011215610d4b5781600401359083610b3d836110f1565b93610b4b60405195866110b9565b83855260208501933660248284010111610d4b57806024602093018637850101526001600160a01b037f000000000000000000000000000000000000000000000000000000000000000016308114908115610d28575b50610d1957610bae61126c565b6040516352d1902d60e01b81526001600160a01b0382169390602081600481885afa869181610ce1575b50610bf157634c9c8ce360e01b86526004859052602486fd5b9384600080516020611618833981519152879603610ccf5750823b15610cbd5760008051602061161883398151915280546001600160a01b031916821790558491907fbc7cd75a20ee27fd9adebab32041f755214dbc6bffa90cc0225b39da2e5c2d3b8380a2805115610ca257610c969382915190845af43d15610c9a573d91610c7a836110f1565b92610c8860405194856110b9565b83523d85602085013e6112d0565b5080f35b6060916112d0565b5050505034610cae5780f35b63b398979f60e01b8152600490fd5b634c9c8ce360e01b8552600452602484fd5b632a87526960e21b8652600452602485fd5b9091506020813d602011610d11575b81610cfd602093836110b9565b81010312610d0d57519038610bd8565b8680fd5b3d9150610cf0565b63703e46dd60e11b8452600484fd5b600080516020611618833981519152546001600160a01b03161415905038610ba1565b8280fd5b50346100f55760203660031901126100f557610d69611088565b610d7161126c565b6001600160a01b03811690610d8782151561118b565b6002546000198101908111610e585760015b81811115610dba575050506001600160601b0360a01b600154161760015580f35b8085526020859052604085205485906001600160a01b031680610de8575b5050610de390611166565b610d99565b803b15610e54576040805163278f794360e11b81526001600160a01b03871660048201526024810191909152600060448201529082908290606490829084905af18015610e495715610dd85781610e3e916110b9565b610794578438610dd8565b6040513d84823e3d90fd5b5080fd5b634e487b7160e01b84526011600452602484fd5b50346100f557806003193601126100f5576002546000198101908111610f7d57610e958161114e565b610ea260405191826110b9565b818152610eae8261114e565b602082019290601f190136843760015b81811115610f1357505090604051928392602084019060208552518091526040840192915b818110610ef1575050500390f35b82516001600160a01b0316845285945060209384019390920191600101610ee3565b808552602085905260408520546001600160a01b03166000198201828111610f69578451811015610f555760051b840160200152610f5090611166565b610ebe565b634e487b7160e01b87526032600452602487fd5b634e487b7160e01b87526011600452602487fd5b634e487b7160e01b82526011600452602482fd5b50346100f55760603660031901126100f557610fab611088565b602435906001600160a01b0382168203610d4b57610fc76110a3565b90610fd061126c565b6001600160a01b0316918215611043578391833b15610d4b57604051633b70894360e11b81526001600160a01b039283166004820152911660248201529181908390604490829084905af18015611036576110285780f35b611031916110b9565b388180f35b50604051903d90823e3d90fd5b60405162461bcd60e51b815260206004820152601760248201527f496e76616c69642061756374696f6e20616464726573730000000000000000006044820152606490fd5b600435906001600160a01b038216820361109e57565b600080fd5b604435906001600160a01b038216820361109e57565b90601f8019910116810190811067ffffffffffffffff8211176110db57604052565b634e487b7160e01b600052604160045260246000fd5b67ffffffffffffffff81116110db57601f01601f191660200190565b919082519283825260005b848110611139575050826000602080949584010152601f8019910116010190565b80602080928401015182828601015201611118565b67ffffffffffffffff81116110db5760051b60200190565b60001981146111755760010190565b634e487b7160e01b600052601160045260246000fd5b1561119257565b60405162461bcd60e51b815260206004820152601e60248201527f496e76616c696420696d706c656d656e746174696f6e206164647265737300006044820152606490fd5b9081602091031261109e57516001600160a01b038116810361109e5790565b6001600160a01b03168015611256576000805160206115f883398151915280546001600160a01b0319811683179091556001600160a01b03167f8be0079c531659141344cd1fd0a4f28419497f9722a3daafe3b4186f6b6457e0600080a3565b631e4fbdf760e01b600052600060045260246000fd5b6000805160206115f8833981519152546001600160a01b0316330361128d57565b63118cdaa760e01b6000523360045260246000fd5b60ff6000805160206116388339815191525460401c16156112bf57565b631afcd79f60e31b60005260046000fd5b906112f657508051156112e557602081519101fd5b63d6bda27560e01b60005260046000fd5b81511580611328575b611307575090565b639996b31560e01b60009081526001600160a01b0391909116600452602490fd5b50803b156112ff56fe60806040526102c68038038061001481610188565b928339810190604081830312610183578051906001600160a01b03821690818303610183576020810151906001600160401b038211610183570183601f820112156101835780519061006d610068836101c3565b610188565b94828652602083830101116101835760005b82811061016e575050602060009185010152813b1561015a577f360894a13ba1a3210667c828492db98dca3e2076cc3735a920a3ca505d382bbc80546001600160a01b031916821790557fbc7cd75a20ee27fd9adebab32041f755214dbc6bffa90cc0225b39da2e5c2d3b600080a28151156101415760008083602061012995519101845af43d15610139573d91610119610068846101c3565b9283523d6000602085013e6101de565b505b604051608690816102408239f35b6060916101de565b5050341561012b5763b398979f60e01b60005260046000fd5b634c9c8ce360e01b60005260045260246000fd5b8060208092840101518282890101520161007f565b600080fd5b6040519190601f01601f191682016001600160401b038111838210176101ad57604052565b634e487b7160e01b600052604160045260246000fd5b6001600160401b0381116101ad57601f01601f191660200190565b9061020457508051156101f357602081519101fd5b63d6bda27560e01b60005260046000fd5b81511580610236575b610215575090565b639996b31560e01b60009081526001600160a01b0391909116600452602490fd5b50803b1561020d56fe60806040527f360894a13ba1a3210667c828492db98dca3e2076cc3735a920a3ca505d382bbc5460009081906001600160a01b0316368280378136915af43d6000803e15604b573d6000f35b3d6000fdfea2646970667358221220c049a985fc6e5da3789046f14391b7aa4f820b9db80e743e3d65df1248678a7e64736f6c634300081c00339016d09d72d40fdae2fd8ceac6b6234c7706214fd39c1cd1e609a0528c199300360894a13ba1a3210667c828492db98dca3e2076cc3735a920a3ca505d382bbcf0c57e16840df040f15088dc2f81fe391c3923bec73e23a9662efc9c229c6a00a2646970667358221220125b2af034f1a415f876b867721fdcb5b958b88d017b5314fb5e6c4dcf48d9c264736f6c634300081c0033",
  "linkReferences": {},
  "deployedLinkReferences": {}
}