{
  "_format": "hh-sol-artifact-1",
  "contractName": "NFTAuctionFactory",
  "sourceName": "contracts/NFTAuctionFactory.sol",
  "abi": [
    {
      "inputs": [
        {
          "internalType": "address",
          "name": "target",
          "type": "address"
        }
      ],
      "name": "AddressEmptyCode",
      "type": "error"
    },
    {
      "inputs": [
        {
          "internalType": "address",
          "name": "implementation",
          "type": "address"
        }
      ],
      "name": "ERC1967InvalidImplementation",
      "type": "error"
    },
    {
      "inputs": [],
      "name": "ERC1967NonPayable",
      "type": "error"
    },
    {
      "inputs": [],
      "name": "FailedCall",
      "type": "error"
    },
    {
      "inputs": [],
      "name": "InvalidInitialization",
      "type": "error"
    },
    {
      "inputs": [],
      "name": "NotInitializing",
      "type": "error"
    },
    {
      "inputs": [
        {
          "internalType": "address",
          "name": "owner",
          "type": "address"
        }
      ],
      "name": "OwnableInvalidOwner",
      "type": "error"
    },
    {
      "inputs": [
        {
          "internalType": "address",
          "name": "account",
          "type": "address"
        }
      ],
      "name": "OwnableUnauthorizedAccount",
      "type": "error"
    },
    {
      "inputs": [],
      "name": "UUPSUnauthorizedCallContext",
      "type": "error"
    },
    {
      "inputs": [
        {
          "internalType": "bytes32",
          "name": "slot",
          "type": "bytes32"
        }
      ],
      "name": "UUPSUnsupportedProxiableUUID",
      "type": "error"
    },
    {
      "anonymous": false,
      "inputs": [
        {
          "indexed": false,
          "internalType": "uint64",
          "name": "version",
          "type": "uint64"
        }
      ],
      "name": "Initialized",
      "type": "event"
    },
    {
      "anonymous": false,
      "inputs": [
        {
          "indexed": true,
          "internalType": "address",
          "name": "previousOwner",
          "type": "address"
        },
        {
          "indexed": true,
          "internalType": "address",
          "name": "newOwner",
          "type": "address"
        }
      ],
      "name": "OwnershipTransferred",
      "type": "event"
    },
    {
      "anonymous": false,
      "inputs": [
        {
          "indexed": true,
          "internalType": "address",
          "name": "implementation",
          "type": "address"
        }
      ],
      "name": "Upgraded",
      "type": "event"
    },
    {
      "inputs": [],
      "name": "UPGRADE_INTERFACE_VERSION",
      "outputs": [
        {
          "internalType": "string",
          "name": "",
          "type": "string"
        }
      ],
      "stateMutability": "view",
      "type": "function"
    },
    {
      "inputs": [
        {
          "internalType": "uint256",
          "name": "_duration",
          "type": "uint256"
        },
        {
          "internalType": "uint256",
          "name": "_startPrice",
          "type": "uint256"
        },
        {
          "internalType": "address",
          "name": "_payTokenType",
          "type": "address"
        },
        {
          "internalType": "uint256",
          "name": "_tokenId",
          "type": "uint256"
        },
        {
          "internalType": "address",
          "name": "_nftContractAddress",
          "type": "address"
        }
      ],
      "name": "createNFTAuction",
      "outputs": [],
      "stateMutability": "nonpayable",
      "type": "function"
    },
    {
      "inputs": [
        {
          "internalType": "uint256",
          "name": "_auctionId",
          "type": "uint256"
        }
      ],
      "name": "getNFTAuctionAddress",
      "outputs": [
        {
          "internalType": "address",
          "name": "",
          "type": "address"
        }
      ],
      "stateMutability": "view",
      "type": "function"
    },
    {
      "inputs": [],
      "name": "getNFTAuctionImplementation",
      "outputs": [
        {
          "internalType": "address",
          "name": "",
          "type": "address"
        }
      ],
      "stateMutability": "view",
      "type": "function"
    },
    {
      "inputs": [
        {
          "internalType": "address",
          "name": "_nftAuctionImplementation",
          "type": "address"
        }
      ],
      "name": "initalize",
      "outputs": [],
      "stateMutability": "nonpayable",
      "type": "function"
    },
    {
      "inputs": [],
      "name": "nextAuctionId",
      "outputs": [
        {
          "internalType": "uint256",
          "name": "",
          "type": "uint256"
        }
      ],
      "stateMutability": "view",
      "type": "function"
    },
    {
      "inputs": [],
      "name": "nftAuctionImplementation",
      "outputs": [
        {
          "internalType": "address",
          "name": "",
          "type": "address"
        }
      ],
      "stateMutability": "view",
      "type": "function"
    },
    {
      "inputs": [],
      "name": "owner",
      "outputs": [
        {
          "internalType": "address",
          "name": "",
          "type": "address"
        }
      ],
      "stateMutability": "view",
      "type": "function"
    },
    {
      "inputs": [],
      "name": "proxiableUUID",
      "outputs": [
        {
          "internalType": "bytes32",
          "name": "",
          "type": "bytes32"
        }
      ],
      "stateMutability": "view",
      "type": "function"
    },
    {
      "inputs": [],
      "name": "renounceOwnership",
      "outputs": [],
      "stateMutability": "nonpayable",
      "type": "function"
    },
    {
      "inputs": [
        {
          "internalType": "address",
          "name": "auctionAddress",
          "type": "address"
        },
        {
          "internalType": "address",
          "name": "tokenAddress",
          "type": "address"
        },
        {
          "internalType": "address",
          "name": "priceFeedAddress",
          "type": "address"
        }
      ],
      "name": "setAuctionPriceFeed",
      "outputs": [],
      "stateMutability": "nonpayable",
      "type": "function"
    },
    {
      "inputs": [
        {
          "internalType": "address",
          "name": "_newImplementation",
          "type": "address"
        }
      ],
      "name": "setNFTAuctionImplementation",
      "outputs": [],
      "stateMutability": "nonpayable",
      "type": "function"
    },
    {
      "inputs": [
        {
          "internalType": "address",
          "name": "newOwner",
          "type": "address"
        }
      ],
      "name": "transferOwnership",
      "outputs": [],
      "stateMutability": "nonpayable",
      "type": "function"
    },
    {
      "inputs": [
        {
          "internalType": "address",
          "name": "newImplementation",
          "type": "address"
        },
        {
          "internalType": "bytes",
          "name": "data",
          "type": "bytes"
        }
      ],
      "name": "upgradeToAndCall",
      "outputs": [],
      "stateMutability": "payable",
      "type": "function"
    }
  ],
  "bytecode": "0x60a08060405234602957306080526113b6908161002f8239608051818181610a9d0152610b6e0152f35b600080fdfe6080604052600436101561001257600080fd5b6000803560e01c806313a6b5aa14610d435780634f1ef28614610af257806352d1902d14610a8a5780635e44024b14610a6157806368b6350114610a615780636b10bf0a14610495578063715018a61461042b5780638da5cb5b146103f55780638dc5fbf9146102145780639935f9a314610183578063aca4fa9114610151578063ad3cb1cc14610104578063f2fde38b146100d75763fc528482146100b757600080fd5b346100d457806003193601126100d4576020600254604051908152f35b80fd5b50346100d45760203660031901126100d4576101016100f4610e3a565b6100fc610f95565b610f1f565b80f35b50346100d457806003193601126100d4575061014d604051610127604082610e6b565b60058152640352e302e360dc1b6020820152604051918291602083526020830190610ebf565b0390f35b50346100d45760203660031901126100d4576020906004358152808252604060018060a01b0391205416604051908152f35b50346100d45760203660031901126100d45761019d610e3a565b6101a5610f95565b6001600160a01b031680156101cf576bffffffffffffffffffffffff60a01b600154161760015580f35b60405162461bcd60e51b815260206004820152601e60248201527f496e76616c696420696d706c656d656e746174696f6e206164647265737300006044820152606490fd5b50346100d45760203660031901126100d45761022e610e3a565b600080516020611361833981519152549060ff8260401c16159167ffffffffffffffff8116801590816103ed575b60011490816103e3575b1590816103da575b506103cb5767ffffffffffffffff198116600117600080516020611361833981519152558261039e575b506102a1610fcb565b6102a9610fcb565b6102b233610f1f565b6102ba610fcb565b60016002556001600160a01b03168015610347576bffffffffffffffffffffffff60a01b60015416176001556102ed5780f35b68ff0000000000000000196000805160206113618339815191525416600080516020611361833981519152557fc7f505b2f371ae2175ee4913f4499e1f2633a7b5936321eed1cdaeb6115181d2602060405160018152a180f35b60405162461bcd60e51b815260206004820152602960248201527f496e76616c6964204e465441756374696f6e20696d706c656d656e746174696f6044820152686e206164647265737360b81b6064820152608490fd5b68ffffffffffffffffff191668010000000000000001176000805160206113618339815191525538610298565b63f92ee8a960e01b8452600484fd5b9050153861026e565b303b159150610266565b84915061025c565b50346100d457806003193601126100d457600080516020611321833981519152546040516001600160a01b039091168152602090f35b50346100d457806003193601126100d457610444610f95565b60008051602061132183398151915280546001600160a01b0319811690915581906001600160a01b03167f8be0079c531659141344cd1fd0a4f28419497f9722a3daafe3b4186f6b6457e08280a380f35b50346100d45760a03660031901126100d457600435906024356104b6610e55565b606435936084356001600160a01b0381169290839003610a5d578115610a0d5782156109c8578315610975576001600160a01b0316908115610930576040516331a9108f60e11b815260048101879052602081602481875afa90811561079b578691610911575b50336001600160a01b03909116036108c15760405163020604bf60e21b815260048101879052602081602481875afa90811561079b578691610892575b506001600160a01b03163014801561081c575b156107ba57600254600154604051919391906102c6808301916001600160a01b03169067ffffffffffffffff8311848410176107a65791839160609361105b843981526040602082015289604082015203019087f0801561079b576001600160a01b031694853b156107975760405192631f43ef7560e11b84523360048501526024840152604483015260648201528560848201528260a48201523060c48201528160e482015284816101048183885af1801561078c57908591610773575b505260208390526040832080546001600160a01b0319168317905560025493600019851461075f576001849501600255813b1561075a578391606483926040519485938492632142170760e11b845233600485015288602485015260448401525af190811561074f578391610737575b5090604051906106ad606083610e6b565b602482527f43726561746564204e465441756374696f6e2070726f7879206174206164647260208301526332b9b99d60e11b6040830152610723604051809261070f602083019563319af33360e01b8752604060248501526064840190610ebf565b90604483015203601f198101835282610e6b565b51906a636f6e736f6c652e6c6f675afa5080f35b8161074191610e6b565b61074c57813861069c565b50fd5b6040513d85823e3d90fd5b505050fd5b634e487b7160e01b84526011600452602484fd5b8161077d91610e6b565b61078857833861062c565b8380fd5b6040513d87823e3d90fd5b8680fd5b6040513d88823e3d90fd5b634e487b7160e01b8a52604160045260248afd5b60405162461bcd60e51b815260206004820152603460248201527f466163746f727920636f6e7472616374206973206e6f7420617070726f766564604482015273081d1bc81d1c985b9cd9995c881d1a194813919560621b6064820152608490fd5b5060405163e985e9c560e01b8152336004820152306024820152602081604481875afa90811561079b578691610853575b5061056d565b90506020813d60201161088a575b8161086e60209383610e6b565b8101031261088657518015158103610886573861084d565b8580fd5b3d9150610861565b6108b4915060203d6020116108ba575b6108ac8183610e6b565b810190610f00565b3861055a565b503d6108a2565b60405162461bcd60e51b815260206004820152602260248201527f43616c6c6572206973206e6f7420746865206f776e6572206f6620746865204e604482015261119560f21b6064820152608490fd5b61092a915060203d6020116108ba576108ac8183610e6b565b3861051d565b60405162461bcd60e51b815260206004820152601e60248201527f496e76616c69642070617920746f6b656e2074797065206164647265737300006044820152606490fd5b60405162461bcd60e51b815260206004820152602560248201527f5374617274207072696365206d7573742062652067726561746572207468616e604482015264207a65726f60d81b6064820152608490fd5b60405162461bcd60e51b815260206004820152601c60248201527f496e76616c6964204e465420636f6e74726163742061646472657373000000006044820152606490fd5b60405162461bcd60e51b815260206004820152602260248201527f4475726174696f6e206d7573742062652067726561746572207468616e207a65604482015261726f60f01b6064820152608490fd5b8480fd5b50346100d457806003193601126100d4576001546040516001600160a01b039091168152602090f35b50346100d457806003193601126100d4577f00000000000000000000000000000000000000000000000000000000000000006001600160a01b03163003610ae35760206040516000805160206113418339815191528152f35b63703e46dd60e11b8152600490fd5b5060403660031901126100d457610b07610e3a565b6024359067ffffffffffffffff8211610d3f5736602383011215610d3f5781600401359083610b3583610ea3565b93610b436040519586610e6b565b83855260208501933660248284010111610d3f57806024602093018637850101526001600160a01b037f000000000000000000000000000000000000000000000000000000000000000016308114908115610d1c575b50610d0d57610ba6610f95565b6040516352d1902d60e01b81526001600160a01b0382169390602081600481885afa869181610cd9575b50610be957634c9c8ce360e01b86526004859052602486fd5b9384600080516020611341833981519152879603610cc75750823b15610cb55760008051602061134183398151915280546001600160a01b031916821790558491907fbc7cd75a20ee27fd9adebab32041f755214dbc6bffa90cc0225b39da2e5c2d3b8380a2805115610c9a57610c8e9382915190845af43d15610c92573d91610c7283610ea3565b92610c806040519485610e6b565b83523d85602085013e610ff9565b5080f35b606091610ff9565b5050505034610ca65780f35b63b398979f60e01b8152600490fd5b634c9c8ce360e01b8552600452602484fd5b632a87526960e21b8652600452602485fd5b9091506020813d602011610d05575b81610cf560209383610e6b565b8101031261079757519038610bd0565b3d9150610ce8565b63703e46dd60e11b8452600484fd5b600080516020611341833981519152546001600160a01b03161415905038610b99565b8280fd5b50346100d45760603660031901126100d457610d5d610e3a565b602435906001600160a01b0382168203610d3f57610d79610e55565b90610d82610f95565b6001600160a01b0316918215610df5578391833b15610d3f57604051633b70894360e11b81526001600160a01b039283166004820152911660248201529181908390604490829084905af18015610de857610dda5780f35b610de391610e6b565b388180f35b50604051903d90823e3d90fd5b60405162461bcd60e51b815260206004820152601760248201527f496e76616c69642061756374696f6e20616464726573730000000000000000006044820152606490fd5b600435906001600160a01b0382168203610e5057565b600080fd5b604435906001600160a01b0382168203610e5057565b90601f8019910116810190811067ffffffffffffffff821117610e8d57604052565b634e487b7160e01b600052604160045260246000fd5b67ffffffffffffffff8111610e8d57601f01601f191660200190565b919082519283825260005b848110610eeb575050826000602080949584010152601f8019910116010190565b80602080928401015182828601015201610eca565b90816020910312610e5057516001600160a01b0381168103610e505790565b6001600160a01b03168015610f7f5760008051602061132183398151915280546001600160a01b0319811683179091556001600160a01b03167f8be0079c531659141344cd1fd0a4f28419497f9722a3daafe3b4186f6b6457e0600080a3565b631e4fbdf760e01b600052600060045260246000fd5b600080516020611321833981519152546001600160a01b03163303610fb657565b63118cdaa760e01b6000523360045260246000fd5b60ff6000805160206113618339815191525460401c1615610fe857565b631afcd79f60e31b60005260046000fd5b9061101f575080511561100e57602081519101fd5b63d6bda27560e01b60005260046000fd5b81511580611051575b611030575090565b639996b31560e01b60009081526001600160a01b0391909116600452602490fd5b50803b1561102856fe60806040526102c68038038061001481610188565b928339810190604081830312610183578051906001600160a01b03821690818303610183576020810151906001600160401b038211610183570183601f820112156101835780519061006d610068836101c3565b610188565b94828652602083830101116101835760005b82811061016e575050602060009185010152813b1561015a577f360894a13ba1a3210667c828492db98dca3e2076cc3735a920a3ca505d382bbc80546001600160a01b031916821790557fbc7cd75a20ee27fd9adebab32041f755214dbc6bffa90cc0225b39da2e5c2d3b600080a28151156101415760008083602061012995519101845af43d15610139573d91610119610068846101c3565b9283523d6000602085013e6101de565b505b604051608690816102408239f35b6060916101de565b5050341561012b5763b398979f60e01b60005260046000fd5b634c9c8ce360e01b60005260045260246000fd5b8060208092840101518282890101520161007f565b600080fd5b6040519190601f01601f191682016001600160401b038111838210176101ad57604052565b634e487b7160e01b600052604160045260246000fd5b6001600160401b0381116101ad57601f01601f191660200190565b9061020457508051156101f357602081519101fd5b63d6bda27560e01b60005260046000fd5b81511580610236575b610215575090565b639996b31560e01b60009081526001600160a01b0391909116600452602490fd5b50803b1561020d56fe60806040527f360894a13ba1a3210667c828492db98dca3e2076cc3735a920a3ca505d382bbc5460009081906001600160a01b0316368280378136915af43d6000803e15604b573d6000f35b3d6000fdfea2646970667358221220c049a985fc6e5da3789046f14391b7aa4f820b9db80e743e3d65df1248678a7e64736f6c634300081c00339016d09d72d40fdae2fd8ceac6b6234c7706214fd39c1cd1e609a0528c199300360894a13ba1a3210667c828492db98dca3e2076cc3735a920a3ca505d382bbcf0c57e16840df040f15088dc2f81fe391c3923bec73e23a9662efc9c229c6a00a26469706673582212205191b5886dc3cc698d5f9eb6b2e5c49bc70b6101ff0e22986f82b266f0b4546064736f6c634300081c0033",
  "linkReferences": {},
  "deployedLinkReferences": {}
}