{
  "_format": "hh-sol-artifact-1",
  "contractName": "NFT",
  "sourceName": "contracts/localTest/NFT.sol",
  "abi": [
    {
      "inputs": [],
      "stateMutability": "nonpayable",
      "type": "constructor"
    },
    {
      "inputs": [
        {
          "internalType": "address",
          "name": "sender",
          "type": "address"
        },
        {
          "internalType": "uint256",
          "name": "tokenId",
          "type": "uint256"
        },
        {
          "internalType": "address",
          "name": "owner",
          "type": "address"
        }
      ],
      "name": "ERC721IncorrectOwner",
      "type": "error"
    },
    {
      "inputs": [
        {
          "internalType": "address",
          "name": "operator",
          "type": "address"
        },
        {
          "internalType": "uint256",
          "name": "tokenId",
          "type": "uint256"
        }
      ],
      "name": "ERC721InsufficientApproval",
      "type": "error"
    },
    {
      "inputs": [
        {
          "internalType": "address",
          "name": "approver",
          "type": "address"
        }
      ],
      "name": "ERC721InvalidApprover",
      "type": "error"
    },
    {
      "inputs": [
        {
          "internalType": "address",
          "name": "operator",
          "type": "address"
        }
      ],
      "name": "ERC721InvalidOperator",
      "type": "error"
    },
    {
      "inputs": [
        {
          "internalType": "address",
          "name": "owner",
          "type": "address"
        }
      ],
      "name": "ERC721InvalidOwner",
      "type": "error"
    },
    {
      "inputs": [
        {
          "internalType": "address",
          "name": "receiver",
          "type": "address"
        }
      ],
      "name": "ERC721InvalidReceiver",
      "type": "error"
    },
    {
      "inputs": [
        {
          "internalType": "address",
          "name": "sender",
          "type": "address"
        }
      ],
      "name": "ERC721InvalidSender",
      "type": "error"
    },
    {
      "inputs": [
        {
          "internalType": "uint256",
          "name": "tokenId",
          "type": "uint256"
        }
      ],
      "name": "ERC721NonexistentToken",
      "type": "error"
    },
    {
      "inputs": [
        {
          "internalType": "address",
          "name": "owner",
          "type": "address"
        }
      ],
      "name": "OwnableInvalidOwner",
      "type": "error"
    },
    {
      "inputs": [
        {
          "internalType": "address",
          "name": "account",
          "type": "address"
        }
      ],
      "name": "OwnableUnauthorizedAccount",
      "type": "error"
    },
    {
      "anonymous": false,
      "inputs": [
        {
          "indexed": true,
          "internalType": "address",
          "name": "owner",
          "type": "address"
        },
        {
          "indexed": true,
          "internalType": "address",
          "name": "approved",
          "type": "address"
        },
        {
          "indexed": true,
          "internalType": "uint256",
          "name": "tokenId",
          "type": "uint256"
        }
      ],
      "name": "Approval",
      "type": "event"
    },
    {
      "anonymous": false,
      "inputs": [
        {
          "indexed": true,
          "internalType": "address",
          "name": "owner",
          "type": "address"
        },
        {
          "indexed": true,
          "internalType": "address",
          "name": "operator",
          "type": "address"
        },
        {
          "indexed": false,
          "internalType": "bool",
          "name": "approved",
          "type": "bool"
        }
      ],
      "name": "ApprovalForAll",
      "type": "event"
    },
    {
      "anonymous": false,
      "inputs": [
        {
          "indexed": true,
          "internalType": "address",
          "name": "previousOwner",
          "type": "address"
        },
        {
          "indexed": true,
          "internalType": "address",
          "name": "newOwner",
          "type": "address"
        }
      ],
      "name": "OwnershipTransferred",
      "type": "event"
    },
    {
      "anonymous": false,
      "inputs": [
        {
          "indexed": true,
          "internalType": "address",
          "name": "from",
          "type": "address"
        },
        {
          "indexed": true,
          "internalType": "address",
          "name": "to",
          "type": "address"
        },
        {
          "indexed": true,
          "internalType": "uint256",
          "name": "tokenId",
          "type": "uint256"
        }
      ],
      "name": "Transfer",
      "type": "event"
    },
    {
      "inputs": [
        {
          "internalType": "address",
          "name": "to",
          "type": "address"
        },
        {
          "internalType": "uint256",
          "name": "tokenId",
          "type": "uint256"
        }
      ],
      "name": "approve",
      "outputs": [],
      "stateMutability": "nonpayable",
      "type": "function"
    },
    {
      "inputs": [
        {
          "internalType": "address",
          "name": "owner",
          "type": "address"
        }
      ],
      "name": "balanceOf",
      "outputs": [
        {
          "internalType": "uint256",
          "name": "",
          "type": "uint256"
        }
      ],
      "stateMutability": "view",
      "type": "function"
    },
    {
      "inputs": [
        {
          "internalType": "uint256",
          "name": "tokenId",
          "type": "uint256"
        }
      ],
      "name": "getApproved",
      "outputs": [
        {
          "internalType": "address",
          "name": "",
          "type": "address"
        }
      ],
      "stateMutability": "view",
      "type": "function"
    },
    {
      "inputs": [
        {
          "internalType": "address",
          "name": "owner",
          "type": "address"
        },
        {
          "internalType": "address",
          "name": "operator",
          "type": "address"
        }
      ],
      "name": "isApprovedForAll",
      "outputs": [
        {
          "internalType": "bool",
          "name": "",
          "type": "bool"
        }
      ],
      "stateMutability": "view",
      "type": "function"
    },
    {
      "inputs": [
        {
          "internalType": "address",
          "name": "to",
          "type": "address"
        },
        {
          "internalType": "uint256",
          "name": "tokenId",
          "type": "uint256"
        },
        {
          "internalType": "string",
          "name": "_tokenURI",
          "type": "string"
        }
      ],
      "name": "mint",
      "outputs": [
        {
          "internalType": "bool",
          "name": "",
          "type": "bool"
        }
      ],
      "stateMutability": "nonpayable",
      "type": "function"
    },
    {
      "inputs": [],
      "name": "name",
      "outputs": [
        {
          "internalType": "string",
          "name": "",
          "type": "string"
        }
      ],
      "stateMutability": "view",
      "type": "function"
    },
    {
      "inputs": [],
      "name": "owner",
      "outputs": [
        {
          "internalType": "address",
          "name": "",
          "type": "address"
        }
      ],
      "stateMutability": "view",
      "type": "function"
    },
    {
      "inputs": [
        {
          "internalType": "uint256",
          "name": "tokenId",
          "type": "uint256"
        }
      ],
      "name": "ownerOf",
      "outputs": [
        {
          "internalType": "address",
          "name": "",
          "type": "address"
        }
      ],
      "stateMutability": "view",
      "type": "function"
    },
    {
      "inputs": [],
      "name": "renounceOwnership",
      "outputs": [],
      "stateMutability": "nonpayable",
      "type": "function"
    },
    {
      "inputs": [
        {
          "internalType": "address",
          "name": "from",
          "type": "address"
        },
        {
          "internalType": "address",
          "name": "to",
          "type": "address"
        },
        {
          "internalType": "uint256",
          "name": "tokenId",
          "type": "uint256"
        }
      ],
      "name": "safeTransferFrom",
      "outputs": [],
      "stateMutability": "nonpayable",
      "type": "function"
    },
    {
      "inputs": [
        {
          "internalType": "address",
          "name": "from",
          "type": "address"
        },
        {
          "internalType": "address",
          "name": "to",
          "type": "address"
        },
        {
          "internalType": "uint256",
          "name": "tokenId",
          "type": "uint256"
        },
        {
          "internalType": "bytes",
          "name": "data",
          "type": "bytes"
        }
      ],
      "name": "safeTransferFrom",
      "outputs": [],
      "stateMutability": "nonpayable",
      "type": "function"
    },
    {
      "inputs": [
        {
          "internalType": "address",
          "name": "operator",
          "type": "address"
        },
        {
          "internalType": "bool",
          "name": "approved",
          "type": "bool"
        }
      ],
      "name": "setApprovalForAll",
      "outputs": [],
      "stateMutability": "nonpayable",
      "type": "function"
    },
    {
      "inputs": [
        {
          "internalType": "bytes4",
          "name": "interfaceId",
          "type": "bytes4"
        }
      ],
      "name": "supportsInterface",
      "outputs": [
        {
          "internalType": "bool",
          "name": "",
          "type": "bool"
        }
      ],
      "stateMutability": "view",
      "type": "function"
    },
    {
      "inputs": [],
      "name": "symbol",
      "outputs": [
        {
          "internalType": "string",
          "name": "",
          "type": "string"
        }
      ],
      "stateMutability": "view",
      "type": "function"
    },
    {
      "inputs": [
        {
          "internalType": "uint256",
          "name": "tokenId",
          "type": "uint256"
        }
      ],
      "name": "tokenURI",
      "outputs": [
        {
          "internalType": "string",
          "name": "",
          "type": "string"
        }
      ],
      "stateMutability": "view",
      "type": "function"
    },
    {
      "inputs": [
        {
          "internalType": "address",
          "name": "from",
          "type": "address"
        },
        {
          "internalType": "address",
          "name": "to",
          "type": "address"
        },
        {
          "internalType": "uint256",
          "name": "tokenId",
          "type": "uint256"
        }
      ],
      "name": "transferFrom",
      "outputs": [],
      "stateMutability": "nonpayable",
      "type": "function"
    },
    {
      "inputs": [
        {
          "internalType": "address",
          "name": "newOwner",
          "type": "address"
        }
      ],
      "name": "transferOwnership",
      "outputs": [],
      "stateMutability": "nonpayable",
      "type": "function"
    }
  ],
  "bytecode": "0x60806040523461038257604080519081016001600160401b0381118282101761028f5760409081526005825264135e53919560da1b602083015280519081016001600160401b0381118282101761028f5760405260048152631353919560e21b602082015281516001600160401b03811161028f57600054600181811c91168015610378575b602082101461026f57601f8111610314575b50602092601f82116001146102b057928192936000926102a5575b50508160011b916000199060031b1c1916176000555b80516001600160401b03811161028f57600154600181811c91168015610285575b602082101461026f57601f811161020a575b50602091601f82116001146101a65791819260009261019b575b50508160011b916000199060031b1c1916176001555b33156101855760068054336001600160a01b03198216811790925560405191906001600160a01b03167f8be0079c531659141344cd1fd0a4f28419497f9722a3daafe3b4186f6b6457e0600080a361120490816103888239f35b631e4fbdf760e01b600052600060045260246000fd5b015190503880610115565b601f198216926001600052806000209160005b8581106101f2575083600195106101d9575b505050811b0160015561012b565b015160001960f88460031b161c191690553880806101cb565b919260206001819286850151815501940192016101b9565b60016000527fb10e2d527612073b26eecdfd717e6a320cf44b4afac2b0732d9fcbe2b7fa0cf6601f830160051c81019160208410610265575b601f0160051c01905b81811061025957506100fb565b6000815560010161024c565b9091508190610243565b634e487b7160e01b600052602260045260246000fd5b90607f16906100e9565b634e487b7160e01b600052604160045260246000fd5b0151905038806100b2565b601f1982169360008052806000209160005b8681106102fc57508360019596106102e3575b505050811b016000556100c8565b015160001960f88460031b161c191690553880806102d5565b919260206001819286850151815501940192016102c2565b600080527f290decd9548b62a8d60345a988386fc84ba6bc95484008f6362f93160ef3e563601f830160051c8101916020841061036e575b601f0160051c01905b8181106103625750610097565b60008155600101610355565b909150819061034c565b90607f1690610085565b600080fdfe608080604052600436101561001357600080fd5b60003560e01c90816301ffc9a714610ca75750806306fdde0314610c02578063081812fc14610bc4578063095ea7b314610ad557806323b872dd14610abe57806342842e0e14610a8e5780636352211e14610a5e57806370a0823114610a08578063715018a6146109ab5780638da5cb5b1461098257806395d89b41146108b4578063a22cb46514610813578063b88d4fde146107a5578063c87b56dd14610666578063d3fc9864146101c4578063e985e9c5146101695763f2fde38b146100da57600080fd5b34610164576020366003190112610164576100f3610d53565b6100fb611061565b6001600160a01b0316801561014e57600680546001600160a01b0319811683179091556001600160a01b03167f8be0079c531659141344cd1fd0a4f28419497f9722a3daafe3b4186f6b6457e0600080a3005b631e4fbdf760e01b600052600060045260246000fd5b600080fd5b3461016457604036600319011261016457610182610d53565b61018a610d69565b9060018060a01b0316600052600560205260406000209060018060a01b0316600052602052602060ff604060002054166040519015158152f35b34610164576060366003190112610164576101dd610d53565b6024359060443567ffffffffffffffff8111610164573660238201121561016457610212903690602481600401359101610e0d565b9061021b611061565b6001600160a01b0381169283156106225780151580610617575b156105c05782511561057b576020936040516102518682610db9565b60008082528381526002875260408120549094906001600160a01b03168015159081610547575b84610530575b858752600289526040872080546001600160a01b031916861790558585827fddf252ad1be2c89b69c2b068fc378daa952ba7f163c4a11628f55a4df523b3ef8a80a45061051c579086913b6103f9575b505050815260078352604081209082519067ffffffffffffffff82116103e5576102f88354610e44565b601f81116103a2575b508490601f8311600114610342579382939492610337575b50508160011b916000199060031b1c19161790555b60405160018152f35b015190508480610319565b90601f19831694848352868320925b8787821061038c575050836001959610610373575b505050811b01905561032e565b015160001960f88460031b161c19169055848080610366565b6001849582939585015181550194019201610351565b838252858220601f840160051c8101918785106103db575b601f0160051c01905b8181106103d05750610301565b8281556001016103c3565b90915081906103ba565b634e487b7160e01b81526041600452602490fd5b9061043791604096949395965180938192630a85bd0160e11b8352336004840152896024840152866044840152608060648401526084830190610d12565b038188885af18591816104d8575b506104a1575050503d600014610499573d9261046084610df1565b9361046e6040519586610db9565b84523d838286013e5b8351938461049357633250574960e11b84526004839052602484fd5b84925001fd5b606092610477565b91939290916001600160e01b03191663757a42ff60e11b016104c657508484816102ce565b633250574960e11b8352600452602482fd5b9091508681813d8311610515575b6104f08183610db9565b8101031261051157516001600160e01b031981168103610511579087610445565b8580fd5b503d6104e6565b6339e3563760e11b85526004859052602485fd5b84875260038952604087206001815401905561027e565b600086815260046020526040902080546001600160a01b031916905580875260038952604087208054600019019055610278565b60405162461bcd60e51b815260206004820152601f60248201527f4552433732314d657461646174613a20555249206d75737420626520736574006044820152606490fd5b60405162461bcd60e51b815260206004820152602960248201527f4552433732313a20746f6b656e4964206d7573742062652067726561746572206044820152687468616e207a65726f60b81b6064820152608490fd5b506103e88110610235565b606460405162461bcd60e51b815260206004820152602060248201527f4552433732313a206d696e7420746f20746865207a65726f20616464726573736044820152fd5b346101645760203660031901126101645760043580156107485760005260076020526040600020604051906000908054906106a082610e44565b808552916001811690811561072157506001146106e0575b6106dc846106c881860382610db9565b604051918291602083526020830190610d12565b0390f35b600090815260208120939250905b808210610707575090915081016020016106c8826106b8565b9192600181602092548385880101520191019092916106ee565b60ff191660208087019190915292151560051b850190920192506106c891508390506106b8565b60405162461bcd60e51b815260206004820152602f60248201527f4552433732314d657461646174613a2055524920717565727920666f72206e6f60448201526e3732bc34b9ba32b73a103a37b5b2b760891b6064820152608490fd5b34610164576080366003190112610164576107be610d53565b6107c6610d69565b906044356064359267ffffffffffffffff84116101645736602385011215610164576107ff610811943690602481600401359101610e0d565b9261080b838383610e7e565b3361108a565b005b346101645760403660031901126101645761082c610d53565b60243590811515809203610164576001600160a01b031690811561089f57336000526005602052604060002082600052602052604060002060ff1981541660ff83161790556040519081527f17307eab39ab6107e8899845ad3d59bd9653f200f220920489ca2b5937696c3160203392a3005b50630b61174360e31b60005260045260246000fd5b346101645760003660031901126101645760405160006001546108d681610e44565b808452906001811690811561095e57506001146108fe575b6106dc836106c881850382610db9565b91905060016000527fb10e2d527612073b26eecdfd717e6a320cf44b4afac2b0732d9fcbe2b7fa0cf6916000905b808210610944575090915081016020016106c86108ee565b91926001816020925483858801015201910190929161092c565b60ff191660208086019190915291151560051b840190910191506106c890506108ee565b34610164576000366003190112610164576006546040516001600160a01b039091168152602090f35b34610164576000366003190112610164576109c4611061565b600680546001600160a01b031981169091556000906001600160a01b03167f8be0079c531659141344cd1fd0a4f28419497f9722a3daafe3b4186f6b6457e08280a3005b34610164576020366003190112610164576001600160a01b03610a29610d53565b168015610a485760005260036020526020604060002054604051908152f35b6322718ad960e21b600052600060045260246000fd5b34610164576020366003190112610164576020610a7c60043561102a565b6040516001600160a01b039091168152f35b3461016457610811610a9f36610d7f565b9060405192610aaf602085610db9565b6000845261080b838383610e7e565b3461016457610811610acf36610d7f565b91610e7e565b3461016457604036600319011261016457610aee610d53565b602435610afa8161102a565b33151580610bb1575b80610b83575b610b6e5781906001600160a01b0384811691167f8c5be1e5ebec7d5bd14f71427d1e84f3dd0314c0f7b2291e5b200ac8c7c3b925600080a4600090815260046020526040902080546001600160a01b0319166001600160a01b03909216919091179055005b63a9fbf51f60e01b6000523360045260246000fd5b506001600160a01b038116600090815260056020908152604080832033845290915290205460ff1615610b09565b506001600160a01b038116331415610b03565b3461016457602036600319011261016457600435610be18161102a565b506000526004602052602060018060a01b0360406000205416604051908152f35b346101645760003660031901126101645760405160008054610c2381610e44565b808452906001811690811561095e5750600114610c4a576106dc836106c881850382610db9565b60008080527f290decd9548b62a8d60345a988386fc84ba6bc95484008f6362f93160ef3e563939250905b808210610c8d575090915081016020016106c86108ee565b919260018160209254838588010152019101909291610c75565b34610164576020366003190112610164576004359063ffffffff60e01b8216809203610164576020916380ac58cd60e01b8114908115610d01575b8115610cf0575b5015158152f35b6301ffc9a760e01b14905083610ce9565b635b5e139f60e01b81149150610ce2565b919082519283825260005b848110610d3e575050826000602080949584010152601f8019910116010190565b80602080928401015182828601015201610d1d565b600435906001600160a01b038216820361016457565b602435906001600160a01b038216820361016457565b6060906003190112610164576004356001600160a01b038116810361016457906024356001600160a01b0381168103610164579060443590565b90601f8019910116810190811067ffffffffffffffff821117610ddb57604052565b634e487b7160e01b600052604160045260246000fd5b67ffffffffffffffff8111610ddb57601f01601f191660200190565b929192610e1982610df1565b91610e276040519384610db9565b829481845281830111610164578281602093846000960137010152565b90600182811c92168015610e74575b6020831014610e5e57565b634e487b7160e01b600052602260045260246000fd5b91607f1691610e53565b6001600160a01b0390911691908215611014576000828152600260205260408120546001600160a01b0316938391859033151580610f7c575b507fddf252ad1be2c89b69c2b068fc378daa952ba7f163c4a11628f55a4df523b3ef9082610f47575b83815260036020526040812060018154019055848152600260205260408120846bffffffffffffffffffffffff60a01b82541617905580a46001600160a01b0316808303610f2d57505050565b6364283d7b60e01b60005260045260245260445260646000fd5b600085815260046020526040902080546001600160a01b03191690558281526003602052604081208054600019019055610ee0565b915091925080610fc5575b15610f96579084849238610eb7565b839085610faf57602491637e27328960e01b8252600452fd5b60449163177e802f60e01b825233600452602452fd5b503385148015610ff3575b80610f875750838152600460205260408120546001600160a01b03163314610f87565b5084815260056020908152604080832033845290915281205460ff16610fd0565b633250574960e11b600052600060045260246000fd5b6000818152600260205260409020546001600160a01b031690811561104d575090565b637e27328960e01b60005260045260246000fd5b6006546001600160a01b0316330361107557565b63118cdaa760e01b6000523360045260246000fd5b823b611098575b5050505050565b604051630a85bd0160e11b81526001600160a01b0391821660048201529181166024830152604482019390935260806064820152911691602090829081906110e4906084830190610d12565b03816000865af18091600091611184575b509061114e57503d15611147573d61110c81610df1565b9061111a6040519283610db9565b81523d6000602083013e5b805190816111425782633250574960e11b60005260045260246000fd5b602001fd5b6060611125565b6001600160e01b03191663757a42ff60e11b0161117057503880808080611091565b633250574960e11b60005260045260246000fd5b6020813d6020116111c6575b8161119d60209383610db9565b810103126111c25751906001600160e01b0319821682036111bf5750386110f5565b80fd5b5080fd5b3d915061119056fea2646970667358221220ad4a837461bf011994e3ac39a9dd8fa4fe931fb762458300ab84b9a820dac09064736f6c634300081c0033",
  "linkReferences": {},
  "deployedLinkReferences": {}
}