{
  "_format": "hh-sol-artifact-1",
  "contractName": "NFTAuctionV2",
  "sourceName": "contracts/NFTAuctionV2.sol",
  "abi": [
    {
      "inputs": [
        {
          "internalType": "address",
          "name": "target",
          "type": "address"
        }
      ],
      "name": "AddressEmptyCode",
      "type": "error"
    },
    {
      "inputs": [
        {
          "internalType": "address",
          "name": "implementation",
          "type": "address"
        }
      ],
      "name": "ERC1967InvalidImplementation",
      "type": "error"
    },
    {
      "inputs": [],
      "name": "ERC1967NonPayable",
      "type": "error"
    },
    {
      "inputs": [],
      "name": "FailedCall",
      "type": "error"
    },
    {
      "inputs": [],
      "name": "InvalidInitialization",
      "type": "error"
    },
    {
      "inputs": [],
      "name": "NotInitializing",
      "type": "error"
    },
    {
      "inputs": [
        {
          "internalType": "address",
          "name": "owner",
          "type": "address"
        }
      ],
      "name": "OwnableInvalidOwner",
      "type": "error"
    },
    {
      "inputs": [
        {
          "internalType": "address",
          "name": "account",
          "type": "address"
        }
      ],
      "name": "OwnableUnauthorizedAccount",
      "type": "error"
    },
    {
      "inputs": [],
      "name": "ReentrancyGuardReentrantCall",
      "type": "error"
    },
    {
      "inputs": [],
      "name": "UUPSUnauthorizedCallContext",
      "type": "error"
    },
    {
      "inputs": [
        {
          "internalType": "bytes32",
          "name": "slot",
          "type": "bytes32"
        }
      ],
      "name": "UUPSUnsupportedProxiableUUID",
      "type": "error"
    },
    {
      "anonymous": false,
      "inputs": [
        {
          "indexed": false,
          "internalType": "uint64",
          "name": "version",
          "type": "uint64"
        }
      ],
      "name": "Initialized",
      "type": "event"
    },
    {
      "anonymous": false,
      "inputs": [
        {
          "indexed": true,
          "internalType": "address",
          "name": "previousOwner",
          "type": "address"
        },
        {
          "indexed": true,
          "internalType": "address",
          "name": "newOwner",
          "type": "address"
        }
      ],
      "name": "OwnershipTransferred",
      "type": "event"
    },
    {
      "anonymous": false,
      "inputs": [
        {
          "indexed": true,
          "internalType": "address",
          "name": "implementation",
          "type": "address"
        }
      ],
      "name": "Upgraded",
      "type": "event"
    },
    {
      "inputs": [],
      "name": "UPGRADE_INTERFACE_VERSION",
      "outputs": [
        {
          "internalType": "string",
          "name": "",
          "type": "string"
        }
      ],
      "stateMutability": "view",
      "type": "function"
    },
    {
      "inputs": [],
      "name": "auction",
      "outputs": [
        {
          "internalType": "address",
          "name": "seller",
          "type": "address"
        },
        {
          "internalType": "uint256",
          "name": "startTime",
          "type": "uint256"
        },
        {
          "internalType": "uint256",
          "name": "endTime",
          "type": "uint256"
        },
        {
          "internalType": "uint256",
          "name": "duration",
          "type": "uint256"
        },
        {
          "internalType": "uint256",
          "name": "startPrice",
          "type": "uint256"
        },
        {
          "internalType": "address",
          "name": "highestBidder",
          "type": "address"
        },
        {
          "internalType": "uint256",
          "name": "highestBid",
          "type": "uint256"
        },
        {
          "internalType": "bool",
          "name": "ended",
          "type": "bool"
        },
        {
          "internalType": "address",
          "name": "payTokenType",
          "type": "address"
        },
        {
          "internalType": "uint256",
          "name": "tokenId",
          "type": "uint256"
        },
        {
          "internalType": "address",
          "name": "nftContractAddress",
          "type": "address"
        },
        {
          "internalType": "address",
          "name": "factoryAddress",
          "type": "address"
        },
        {
          "internalType": "uint256",
          "name": "auctionId",
          "type": "uint256"
        }
      ],
      "stateMutability": "view",
      "type": "function"
    },
    {
      "inputs": [
        {
          "internalType": "address",
          "name": "_payTokenType",
          "type": "address"
        },
        {
          "internalType": "uint256",
          "name": "_amount",
          "type": "uint256"
        }
      ],
      "name": "bid",
      "outputs": [],
      "stateMutability": "payable",
      "type": "function"
    },
    {
      "inputs": [],
      "name": "endAuction",
      "outputs": [],
      "stateMutability": "nonpayable",
      "type": "function"
    },
    {
      "inputs": [],
      "name": "getAuctionInfo",
      "outputs": [
        {
          "components": [
            {
              "internalType": "address",
              "name": "seller",
              "type": "address"
            },
            {
              "internalType": "uint256",
              "name": "startTime",
              "type": "uint256"
            },
            {
              "internalType": "uint256",
              "name": "endTime",
              "type": "uint256"
            },
            {
              "internalType": "uint256",
              "name": "duration",
              "type": "uint256"
            },
            {
              "internalType": "uint256",
              "name": "startPrice",
              "type": "uint256"
            },
            {
              "internalType": "address",
              "name": "highestBidder",
              "type": "address"
            },
            {
              "internalType": "uint256",
              "name": "highestBid",
              "type": "uint256"
            },
            {
              "internalType": "bool",
              "name": "ended",
              "type": "bool"
            },
            {
              "internalType": "address",
              "name": "payTokenType",
              "type": "address"
            },
            {
              "internalType": "uint256",
              "name": "tokenId",
              "type": "uint256"
            },
            {
              "internalType": "address",
              "name": "nftContractAddress",
              "type": "address"
            },
            {
              "internalType": "address",
              "name": "factoryAddress",
              "type": "address"
            },
            {
              "internalType": "uint256",
              "name": "auctionId",
              "type": "uint256"
            }
          ],
          "internalType": "struct NFTAuction.Auction",
          "name": "",
          "type": "tuple"
        }
      ],
      "stateMutability": "view",
      "type": "function"
    },
    {
      "inputs": [
        {
          "internalType": "address",
          "name": "tokenAddress",
          "type": "address"
        }
      ],
      "name": "getPriceFeed",
      "outputs": [
        {
          "internalType": "address",
          "name": "",
          "type": "address"
        }
      ],
      "stateMutability": "view",
      "type": "function"
    },
    {
      "inputs": [],
      "name": "getVersion",
      "outputs": [
        {
          "internalType": "string",
          "name": "",
          "type": "string"
        }
      ],
      "stateMutability": "pure",
      "type": "function"
    },
    {
      "inputs": [
        {
          "internalType": "address",
          "name": "_seller",
          "type": "address"
        },
        {
          "internalType": "uint256",
          "name": "_duration",
          "type": "uint256"
        },
        {
          "internalType": "uint256",
          "name": "_startPrice",
          "type": "uint256"
        },
        {
          "internalType": "address",
          "name": "_payTokenType",
          "type": "address"
        },
        {
          "internalType": "uint256",
          "name": "_tokenId",
          "type": "uint256"
        },
        {
          "internalType": "address",
          "name": "_nftContractAddress",
          "type": "address"
        },
        {
          "internalType": "address",
          "name": "_factoryAddress",
          "type": "address"
        },
        {
          "internalType": "uint256",
          "name": "_auctionId",
          "type": "uint256"
        }
      ],
      "name": "initialize",
      "outputs": [],
      "stateMutability": "nonpayable",
      "type": "function"
    },
    {
      "inputs": [],
      "name": "initializeV2",
      "outputs": [],
      "stateMutability": "nonpayable",
      "type": "function"
    },
    {
      "inputs": [
        {
          "internalType": "address",
          "name": "",
          "type": "address"
        },
        {
          "internalType": "address",
          "name": "",
          "type": "address"
        },
        {
          "internalType": "uint256",
          "name": "",
          "type": "uint256"
        },
        {
          "internalType": "bytes",
          "name": "",
          "type": "bytes"
        }
      ],
      "name": "onERC721Received",
      "outputs": [
        {
          "internalType": "bytes4",
          "name": "",
          "type": "bytes4"
        }
      ],
      "stateMutability": "pure",
      "type": "function"
    },
    {
      "inputs": [],
      "name": "owner",
      "outputs": [
        {
          "internalType": "address",
          "name": "",
          "type": "address"
        }
      ],
      "stateMutability": "view",
      "type": "function"
    },
    {
      "inputs": [
        {
          "internalType": "address",
          "name": "",
          "type": "address"
        }
      ],
      "name": "priceFeeds",
      "outputs": [
        {
          "internalType": "contract AggregatorV3Interface",
          "name": "",
          "type": "address"
        }
      ],
      "stateMutability": "view",
      "type": "function"
    },
    {
      "inputs": [],
      "name": "proxiableUUID",
      "outputs": [
        {
          "internalType": "bytes32",
          "name": "",
          "type": "bytes32"
        }
      ],
      "stateMutability": "view",
      "type": "function"
    },
    {
      "inputs": [],
      "name": "renounceOwnership",
      "outputs": [],
      "stateMutability": "nonpayable",
      "type": "function"
    },
    {
      "inputs": [
        {
          "internalType": "address",
          "name": "tokenAddress",
          "type": "address"
        },
        {
          "internalType": "address",
          "name": "priceFeedAddress",
          "type": "address"
        }
      ],
      "name": "setPriceFeed",
      "outputs": [],
      "stateMutability": "nonpayable",
      "type": "function"
    },
    {
      "inputs": [
        {
          "internalType": "address",
          "name": "newOwner",
          "type": "address"
        }
      ],
      "name": "transferOwnership",
      "outputs": [],
      "stateMutability": "nonpayable",
      "type": "function"
    },
    {
      "inputs": [
        {
          "internalType": "address",
          "name": "newImplementation",
          "type": "address"
        },
        {
          "internalType": "bytes",
          "name": "data",
          "type": "bytes"
        }
      ],
      "name": "upgradeToAndCall",
      "outputs": [],
      "stateMutability": "payable",
      "type": "function"
    }
  ],
  "bytecode": "0x60a0806040523460295730608052612294908161002f82396080518181816110eb01526111bc0152f35b600080fdfe6080604052600436101561001257600080fd5b6000803560e01c80630d8e6e2c14611990578063150b7a021461191a5780633e87deea146114095780634f1ef2861461114057806352d1902d146110d857806359d667a514610aff5780635b6cca80146107935780635cd8a76b146109c9578063715018a61461095f57806376e11286146108b85780637d9f6db51461080a5780638da5cb5b146107d45780639dcb511a14610793578063ad3cb1cc14610746578063d94a350514610597578063f2fde38b1461056d5763fe67a54b146100d857600080fd5b3461042f578060031936011261042f5760075460ff81166105345761010260015460035490611ad0565b42106104fb5760ff191660011760075560095460055482916001600160a01b039081169116156104425760018060a01b036005541661018481604051610149606082611a92565b602381527f686173206269646465722c207472616e73666572206e667420746f206269646460208201526232b91d60e91b6040820152612100565b600854823b1561043d57604051632142170760e11b81523060048201526001600160a01b0392909216602483015260448201529082908290606490829084905af180156104325761041a575b505060018060a01b0381541660018060a01b0360075460081c16600654600260008051602061221f833981519152541461040b57600260008051602061221f8339815191525582156103c657801561038c578391806102985750818080926040956102708188516102418a82611a92565b601781527f7472616e736665722065746820746f206269646465723a0000000000000000006020820152612100565b82f11561028e57505b600160008051602061221f8339815191525580f35b51903d90823e3d90fd5b915060209060446040946102e08187516102b28982611a92565b601981527f7472616e7366657220657263323020746f206269646465723a0000000000000087820152612100565b868651958694859363a9059cbb60e01b8552600485015260248401525af1908115610380578391610351575b50156103185750610279565b5162461bcd60e51b8152602060048201526013602482015272115490cc8c081c99599d5b990819985a5b1959606a1b6044820152606490fd5b610373915060203d602011610379575b61036b8183611a92565b810190611af3565b3861030c565b503d610361565b505051903d90823e3d90fd5b60405162461bcd60e51b81526020600482015260126024820152710616d6f756e74206d757374206265203e20360741b6044820152606490fd5b60405162461bcd60e51b815260206004820152601a60248201527f526563697069656e742061646472657373206e6f7420626520300000000000006044820152606490fd5b633ee5aeb560e01b8452600484fd5b8161042491611a92565b61042f5780386101d0565b80fd5b6040513d84823e3d90fd5b505050fd5b9060018060a01b0381541661048e8160405161045f604082611a92565b602081527f6e6f206269646465722c2072657475726e206e667420746f2073656c6c65723a6020820152612100565b600854833b156104f757604051632142170760e11b81523060048201526001600160a01b0392909216602483015260448201529181908390606490829084905af180156104ea576104de57505080f35b6104e791611a92565b80f35b50604051903d90823e3d90fd5b8280fd5b60405162461bcd60e51b8152602060048201526011602482015270185d58dd1a5bdb881b9bdd08195b991959607a1b6044820152606490fd5b60405162461bcd60e51b8152602060048201526011602482015270185d58dd1a5bdb881a185908195b991959607a1b6044820152606490fd5b503461042f57602036600319011261042f576104e761058a611a2e565b6105926120ca565b611b0b565b503461042f578060031936011261042f57806101a0916101806040516105bc81611a5f565b8281528260208201528260408201528260608201528260808201528260a08201528260c08201528260e08201528261010082015282610120820152826101408201528261016082015201526040519061061482611a5f565b60018060a01b03905416908181526001546020820190815260025460408301908152600354606084019081526004546080850190815260018060a01b03600554169060a0860191825260065460c087019081526007549260e088019260ff85161515845261010089019460018060a01b039060081c168552600854956101208a0196875260018060a01b0360095416976101408b0198895260018060a01b03600a5416996101608c019a8b52610180600b549c019b8c526040519c8d525160208d01525160408c01525160608b01525160808a015260018060a01b0390511660a08901525160c088015251151560e087015260018060a01b039051166101008601525161012085015260018060a01b0390511661014084015260018060a01b0390511661016083015251610180820152f35b503461042f578060031936011261042f575061078f604051610769604082611a92565b60058152640352e302e360dc1b6020820152604051918291602083526020830190611a09565b0390f35b503461042f57602036600319011261042f576020906001600160a01b036107b8611a2e565b168152600c8252604060018060a01b0391205416604051908152f35b503461042f578060031936011261042f576000805160206121df833981519152546040516001600160a01b039091168152602090f35b503461042f578060031936011261042f575460015460025460035460045460055460065460075460088054600954600a54600b54604080516001600160a01b039e8f168152602081019d909d528c019a909a5260608b019890985260808a019690965293891660a089015260c088019290925260ff8116151560e0880152901c861661010086015261012085015284166101408401529092166101608201526101808101919091526101a090f35b503461042f57604036600319011261042f576108d2611a2e565b6108da611a49565b6108e26120ca565b6001600160a01b031690811561091a576001600160a01b03168252600c6020526040822080546001600160a01b031916909117905580f35b60405162461bcd60e51b815260206004820152601a60248201527f496e76616c6964207072696365206665656420616464726573730000000000006044820152606490fd5b503461042f578060031936011261042f576109786120ca565b6000805160206121df83398151915280546001600160a01b0319811690915581906001600160a01b03167f8be0079c531659141344cd1fd0a4f28419497f9722a3daafe3b4186f6b6457e08280a380f35b503461042f578060031936011261042f5760008051602061223f8339815191525460ff8160401c16908115610ae9575b50610ada5760008051602061223f833981519152805468ffffffffffffffffff1916680100000000000000021790556000805160206121df83398151915254610a63906001600160a01b0316610a4d61214f565b610a5561214f565b610a5e81611b0b565b612074565b610a6b61214f565b610a7361214f565b600160008051602061221f8339815191525560ff60401b1960008051602061223f833981519152541660008051602061223f833981519152557fc7f505b2f371ae2175ee4913f4499e1f2633a7b5936321eed1cdaeb6115181d2602060405160028152a180f35b63f92ee8a960e01b8152600490fd5b6002915067ffffffffffffffff161015386109f9565b50604036600319011261042f57610b14611a2e565b602435610b2660015460035490611ad0565b42101561109f5782546001600160a01b03163314611066576001600160a01b0382168015908115610f5b57823403610f16575b610b61611c79565b91604092610b92818551610b758782611a92565b600b81526a1a1a59da1d195cdd1554d160aa1b6020820152611de0565b828752600c602052838720546001600160a01b031615610ed357610bb68587611eb0565b610be3818651610bc68882611a92565b600b81526a62696455534456616c756560a81b6020820152611de0565b1115610e8f5715610ded575b506005546001600160a01b0316801590811580610de2575b610c4c575b5050600580546001600160a01b031916331790555060065560078054610100600160a81b03191660089290921b610100600160a81b031691909117905580f35b60018060a01b0360075460081c1660065492600260008051602061221f8339815191525414610dd357600260008051602061221f83398151915255610d8f578215610d56578692919080610cdc57508280928192610cb08188516102418a82611a92565b82f115610cd357505b600160008051602061221f83398151915255388080610c0c565b513d84823e3d90fd5b926020929160449150610cf58187516102b28982611a92565b888651958694859363a9059cbb60e01b8552600485015260248401525af1908115610d4c578591610d2d575b50156103185750610cb9565b610d46915060203d6020116103795761036b8183611a92565b38610d21565b82513d87823e3d90fd5b835162461bcd60e51b81526020600482015260126024820152710616d6f756e74206d757374206265203e20360741b6044820152606490fd5b835162461bcd60e51b815260206004820152601a60248201527f526563697069656e742061646472657373206e6f7420626520300000000000006044820152606490fd5b633ee5aeb560e01b8852600488fd5b506006541515610c07565b81516323b872dd60e01b815233600482015230602482015260448101849052906020908290606490829089905af1908115610d4c578591610e70575b5015610e355738610bef565b5162461bcd60e51b8152602060048201526015602482015274115490cc8c081d1c985b9cd9995c8819985a5b1959605a1b6044820152606490fd5b610e89915060203d6020116103795761036b8183611a92565b38610e29565b825162461bcd60e51b815260206004820152601c60248201527f62696420616d6f756e74206e656564203e2068696768657374426964000000006044820152606490fd5b6064845162461bcd60e51b815260206004820152602060248201527f50726963652066656564206e6f742073657420666f722062696420746f6b656e6044820152fd5b60405162461bcd60e51b815260206004820152601f60248201527f45544820626964206e6565642076616c756520657175616c20616d6f756e74006044820152606490fd5b3461102157604051636eb1769f60e11b8152336004820152306024820152602081604481855afa80156110165784918791610fdd575b501015610b595760405162461bcd60e51b815260206004820152601a60248201527f455243323020616c6c6f77616e6365206e6f7420656e6f7567680000000000006044820152606490fd5b9150506020813d60201161100e575b81610ff960209383611a92565b8101031261100a5783905138610f91565b8580fd5b3d9150610fec565b6040513d88823e3d90fd5b60405162461bcd60e51b815260206004820152601b60248201527f455243323020626964206e656564206e6f742073656e642045544800000000006044820152606490fd5b60405162461bcd60e51b815260206004820152601160248201527014d95b1b195c8818d85b9b9bdd08189a59607a1b6044820152606490fd5b60405162461bcd60e51b8152602060048201526011602482015270105d58dd1a5bdb881a185cc8195b991959607a1b6044820152606490fd5b503461042f578060031936011261042f577f00000000000000000000000000000000000000000000000000000000000000006001600160a01b031630036111315760206040516000805160206121ff8339815191528152f35b63703e46dd60e11b8152600490fd5b50604036600319011261042f57611155611a2e565b6024359067ffffffffffffffff82116104f757366023830112156104f7578160040135908361118383611ab4565b936111916040519586611a92565b838552602085019336602482840101116104f757806024602093018637850101526001600160a01b037f0000000000000000000000000000000000000000000000000000000000000000163081149081156113e6575b506113d7576000805160206121df833981519152546001600160a01b0316331480156113c3575b1561137e576040516352d1902d60e01b81526001600160a01b0382169390602081600481885afa869181611346575b5061125657634c9c8ce360e01b86526004859052602486fd5b93846000805160206121ff8339815191528796036113345750823b15611322576000805160206121ff83398151915280546001600160a01b031916821790558491907fbc7cd75a20ee27fd9adebab32041f755214dbc6bffa90cc0225b39da2e5c2d3b8380a2805115611307576112fb9382915190845af43d156112ff573d916112df83611ab4565b926112ed6040519485611a92565b83523d85602085013e61217d565b5080f35b60609161217d565b50505050346113135780f35b63b398979f60e01b8152600490fd5b634c9c8ce360e01b8552600452602484fd5b632a87526960e21b8652600452602485fd5b9091506020813d602011611376575b8161136260209383611a92565b810103126113725751903861123d565b8680fd5b3d9150611355565b60405162461bcd60e51b815260206004820152601960248201527f4e6f7420617574686f72697a656420746f2075706772616465000000000000006044820152606490fd5b50600a546001600160a01b0316331461120e565b63703e46dd60e11b8452600484fd5b6000805160206121ff833981519152546001600160a01b031614159050386111e7565b503461042f5761010036600319011261042f57611424611a2e565b6064356001600160a01b03811690602435906044359083810361100a5760a4356001600160a01b0381169260843592918490036119165760c4356001600160a01b03811695908690036119125760e4359660008051602061223f833981519152549867ffffffffffffffff60ff8b60401c16159a168015908161190a575b6001149081611900575b1590816118f7575b506118e85789600167ffffffffffffffff1960008051602061223f83398151915254161760008051602061223f833981519152556118b1575b6114f561214f565b6114fd61214f565b61150633611b0b565b61150e61214f565b61151661214f565b61151e61214f565b600160008051602061221f833981519152556001600160a01b03169081156118735786156118385782156117e8576040516331a9108f60e11b8152600481018790526020816024818b5afa80156117dd5783918d91611794575b506001600160a01b03160361174f5761018089918c8052600c60205260408d2073694aa1769357215de4fac081bf1f309adc3253066001600160601b0360a01b82541617905573a2f78ab2355fe2f984d808b5cee7fd0a93d5270e8d52600c60205260408d2073a2f78ab2355fe2f984d808b5cee7fd0a93d5270e6001600160601b0360a01b8254161790556040519061161182611a5f565b8482524260208301528d60408301528560608301528660808301528d60a08301528d60c08301528d60e083015261010082015287610120820152886101408201528961016082015201526001600160601b0360a01b8a541617895542600155886002556003556004556001600160601b0360a01b600554166005558660065560ff196007541660075560075490610100600160a81b0390610100600160a81b039060081b161690610100600160a81b031916176007556008556001600160601b0360a01b60095416176009556001600160601b0360a01b600a541617600a55600b556116fa5780f35b60ff60401b1960008051602061223f833981519152541660008051602061223f833981519152557fc7f505b2f371ae2175ee4913f4499e1f2633a7b5936321eed1cdaeb6115181d2602060405160018152a180f35b60405162461bcd60e51b815260206004820152601b60248201527f53656c6c657220646f6573206e6f74206f776e20746865204e465400000000006044820152606490fd5b9150506020813d6020116117d5575b816117b060209383611a92565b810103126117d157516001600160a01b03811681036117d157829038611578565b8b80fd5b3d91506117a3565b6040513d8e823e3d90fd5b60405162461bcd60e51b815260206004820152602260248201527f4475726174696f6e206d7573742062652067726561746572207468616e207a65604482015261726f60f01b6064820152608490fd5b60405162461bcd60e51b8152602060048201526013602482015272496e76616c6964204e4654206164647265737360681b6044820152606490fd5b60405162461bcd60e51b8152602060048201526016602482015275496e76616c69642073656c6c6572206164647265737360501b6044820152606490fd5b6801000000000000000060ff60401b1960008051602061223f83398151915254161760008051602061223f833981519152556114ed565b63f92ee8a960e01b8b5260048bfd5b905015386114b4565b303b1591506114ac565b8b91506114a2565b8880fd5b8780fd5b503461042f57608036600319011261042f57611934611a2e565b5061193d611a49565b5060643567ffffffffffffffff811161198c573660238201121561198c57806004013567ffffffffffffffff81116104f7573691016024011161042f57604051630a85bd0160e11b8152602090f35b5080fd5b503461042f578060031936011261042f575061078f6040516119b3604082611a92565b6012815271053696d706c6541756374696f6e2056322e360741b6020820152604051918291602083526020830190611a09565b60005b8381106119f95750506000910152565b81810151838201526020016119e9565b90602091611a22815180928185528580860191016119e6565b601f01601f1916010190565b600435906001600160a01b0382168203611a4457565b600080fd5b602435906001600160a01b0382168203611a4457565b6101a0810190811067ffffffffffffffff821117611a7c57604052565b634e487b7160e01b600052604160045260246000fd5b90601f8019910116810190811067ffffffffffffffff821117611a7c57604052565b67ffffffffffffffff8111611a7c57601f01601f191660200190565b91908201809211611add57565b634e487b7160e01b600052601160045260246000fd5b90816020910312611a4457518015158103611a445790565b6001600160a01b03811615611b2557611b2390612074565b565b631e4fbdf760e01b600052600060045260246000fd5b15611b4257565b60405162461bcd60e51b815260206004820152601f60248201527f50726963652066656564206e6f742073657420666f7220706179546f6b656e006044820152606490fd5b519069ffffffffffffffffffff82168203611a4457565b908160a0910312611a4457611bb281611b87565b91602082015191604081015191611bd0608060608401519301611b87565b90565b15611bda57565b60405162461bcd60e51b815260206004820152601760248201527f496e76616c69642070726963652066726f6d20666565640000000000000000006044820152606490fd5b90816020910312611a44575160ff81168103611a445790565b81810292918115918404141715611add57565b604d8111611add57600a0a90565b8115611c63570490565b634e487b7160e01b600052601260045260246000fd5b60075460081c6001600160a01b039081166000818152600c602052604090205490911690611ca8821515611b3b565b604051633fabe5a360e21b81529160a083600481845afa928315611d9857600093611da4575b506020600491611ce060008613611bd3565b60405163313ce56760e01b815292839182905afa8015611d985760ff91600091611d69575b5016906004549060018060a01b0360055416611d5f575b611d4957611d2a9192611c38565b90600c019081600c11611add57611d43611bd092611c4b565b90611c59565b611d59611d4391611bd094611c38565b91611c4b565b6006549150611d1c565b611d8b915060203d602011611d91575b611d838183611a92565b810190611c1f565b38611d05565b503d611d79565b6040513d6000823e3d90fd5b6004919350611dcc60209160a03d60a011611dd9575b611dc48183611a92565b810190611b9e565b5050509050939150611cce565b503d611dba565b611e10611e24600093928493604051938492632d839cb360e21b6020850152604060248501526064840190611a09565b90604483015203601f198101835282611a92565b6020815191016a636f6e736f6c652e6c6f675afa50565b600060443d10611bd0576040513d600319016004823e8051913d602484011167ffffffffffffffff841117611eaa578282019283519167ffffffffffffffff8311611ea2573d84016003190185840160200111611ea25750611bd092910160200190611a92565b949350505050565b92915050565b6001600160a01b039081166000818152600c602052604090205490911691611ed9831515611b3b565b604051633fabe5a360e21b81529260a084600481845afa6000948161204e575b50611fe857600060033d11611fd6575b6308c379a014611f52575b60405162461bcd60e51b8152602060048201526016602482015275141c9a58d948199959590818d85b1b0819985a5b195960521b6044820152606490fd5b611f5a611e3b565b80611f655750611f14565b611fd290611fb260326040518093710283934b1b2903332b2b21032b93937b91d160751b6020830152611fa181518092602086860191016119e6565b81010301601f198101835282611a92565b60405162461bcd60e51b8152602060048201529182916024830190611a09565b0390fd5b5060046000803e60005160e01c611f09565b6020600491611ff960008713611bd3565b60405163313ce56760e01b815292839182905afa8015611d985760ff9160009161202f575b501691611d4957611d2a9192611c38565b612048915060203d602011611d9157611d838183611a92565b3861201e565b61206891955060a03d60a011611dd957611dc48183611a92565b50505090509338611ef9565b6000805160206121df83398151915280546001600160a01b039283166001600160a01b0319821681179092559091167f8be0079c531659141344cd1fd0a4f28419497f9722a3daafe3b4186f6b6457e0600080a3565b6000805160206121df833981519152546001600160a01b031633036120eb57565b63118cdaa760e01b6000523360045260246000fd5b612130611e2460009392849360405193849263319af33360e01b6020850152604060248501526064840190611a09565b6001600160a01b0391909116604483015203601f198101835282611a92565b60ff60008051602061223f8339815191525460401c161561216c57565b631afcd79f60e31b60005260046000fd5b906121a3575080511561219257602081519101fd5b63d6bda27560e01b60005260046000fd5b815115806121d5575b6121b4575090565b639996b31560e01b60009081526001600160a01b0391909116600452602490fd5b50803b156121ac56fe9016d09d72d40fdae2fd8ceac6b6234c7706214fd39c1cd1e609a0528c199300360894a13ba1a3210667c828492db98dca3e2076cc3735a920a3ca505d382bbc9b779b17422d0df92223018b32b4d1fa46e071723d6817e2486d003becc55f00f0c57e16840df040f15088dc2f81fe391c3923bec73e23a9662efc9c229c6a00a2646970667358221220031530abd663e125b3dd26a239a434529a260e171d2aab7e5bb8f1a8174a623d64736f6c634300081c0033",
  "linkReferences": {},
  "deployedLinkReferences": {}
}