{
  "_format": "hh-sol-artifact-1",
  "contractName": "NFTAuctionV2",
  "sourceName": "contracts/NFTAuctionV2.sol",
  "abi": [
    {
      "inputs": [
        {
          "internalType": "address",
          "name": "target",
          "type": "address"
        }
      ],
      "name": "AddressEmptyCode",
      "type": "error"
    },
    {
      "inputs": [
        {
          "internalType": "address",
          "name": "implementation",
          "type": "address"
        }
      ],
      "name": "ERC1967InvalidImplementation",
      "type": "error"
    },
    {
      "inputs": [],
      "name": "ERC1967NonPayable",
      "type": "error"
    },
    {
      "inputs": [],
      "name": "FailedCall",
      "type": "error"
    },
    {
      "inputs": [],
      "name": "InvalidInitialization",
      "type": "error"
    },
    {
      "inputs": [],
      "name": "NotInitializing",
      "type": "error"
    },
    {
      "inputs": [
        {
          "internalType": "address",
          "name": "owner",
          "type": "address"
        }
      ],
      "name": "OwnableInvalidOwner",
      "type": "error"
    },
    {
      "inputs": [
        {
          "internalType": "address",
          "name": "account",
          "type": "address"
        }
      ],
      "name": "OwnableUnauthorizedAccount",
      "type": "error"
    },
    {
      "inputs": [],
      "name": "ReentrancyGuardReentrantCall",
      "type": "error"
    },
    {
      "inputs": [],
      "name": "UUPSUnauthorizedCallContext",
      "type": "error"
    },
    {
      "inputs": [
        {
          "internalType": "bytes32",
          "name": "slot",
          "type": "bytes32"
        }
      ],
      "name": "UUPSUnsupportedProxiableUUID",
      "type": "error"
    },
    {
      "anonymous": false,
      "inputs": [
        {
          "indexed": false,
          "internalType": "uint64",
          "name": "version",
          "type": "uint64"
        }
      ],
      "name": "Initialized",
      "type": "event"
    },
    {
      "anonymous": false,
      "inputs": [
        {
          "indexed": true,
          "internalType": "address",
          "name": "previousOwner",
          "type": "address"
        },
        {
          "indexed": true,
          "internalType": "address",
          "name": "newOwner",
          "type": "address"
        }
      ],
      "name": "OwnershipTransferred",
      "type": "event"
    },
    {
      "anonymous": false,
      "inputs": [
        {
          "indexed": true,
          "internalType": "address",
          "name": "implementation",
          "type": "address"
        }
      ],
      "name": "Upgraded",
      "type": "event"
    },
    {
      "inputs": [],
      "name": "UPGRADE_INTERFACE_VERSION",
      "outputs": [
        {
          "internalType": "string",
          "name": "",
          "type": "string"
        }
      ],
      "stateMutability": "view",
      "type": "function"
    },
    {
      "inputs": [],
      "name": "auction",
      "outputs": [
        {
          "internalType": "address",
          "name": "seller",
          "type": "address"
        },
        {
          "internalType": "uint256",
          "name": "startTime",
          "type": "uint256"
        },
        {
          "internalType": "uint256",
          "name": "endTime",
          "type": "uint256"
        },
        {
          "internalType": "uint256",
          "name": "duration",
          "type": "uint256"
        },
        {
          "internalType": "uint256",
          "name": "startPrice",
          "type": "uint256"
        },
        {
          "internalType": "address",
          "name": "highestBidder",
          "type": "address"
        },
        {
          "internalType": "uint256",
          "name": "highestBid",
          "type": "uint256"
        },
        {
          "internalType": "bool",
          "name": "ended",
          "type": "bool"
        },
        {
          "internalType": "address",
          "name": "payTokenType",
          "type": "address"
        },
        {
          "internalType": "uint256",
          "name": "tokenId",
          "type": "uint256"
        },
        {
          "internalType": "address",
          "name": "nftContractAddress",
          "type": "address"
        },
        {
          "internalType": "address",
          "name": "factoryAddress",
          "type": "address"
        },
        {
          "internalType": "uint256",
          "name": "auctionId",
          "type": "uint256"
        }
      ],
      "stateMutability": "view",
      "type": "function"
    },
    {
      "inputs": [
        {
          "internalType": "address",
          "name": "_payTokenType",
          "type": "address"
        },
        {
          "internalType": "uint256",
          "name": "_amount",
          "type": "uint256"
        }
      ],
      "name": "bid",
      "outputs": [],
      "stateMutability": "payable",
      "type": "function"
    },
    {
      "inputs": [],
      "name": "endAuction",
      "outputs": [],
      "stateMutability": "nonpayable",
      "type": "function"
    },
    {
      "inputs": [],
      "name": "getAuctionInfo",
      "outputs": [
        {
          "components": [
            {
              "internalType": "address",
              "name": "seller",
              "type": "address"
            },
            {
              "internalType": "uint256",
              "name": "startTime",
              "type": "uint256"
            },
            {
              "internalType": "uint256",
              "name": "endTime",
              "type": "uint256"
            },
            {
              "internalType": "uint256",
              "name": "duration",
              "type": "uint256"
            },
            {
              "internalType": "uint256",
              "name": "startPrice",
              "type": "uint256"
            },
            {
              "internalType": "address",
              "name": "highestBidder",
              "type": "address"
            },
            {
              "internalType": "uint256",
              "name": "highestBid",
              "type": "uint256"
            },
            {
              "internalType": "bool",
              "name": "ended",
              "type": "bool"
            },
            {
              "internalType": "address",
              "name": "payTokenType",
              "type": "address"
            },
            {
              "internalType": "uint256",
              "name": "tokenId",
              "type": "uint256"
            },
            {
              "internalType": "address",
              "name": "nftContractAddress",
              "type": "address"
            },
            {
              "internalType": "address",
              "name": "factoryAddress",
              "type": "address"
            },
            {
              "internalType": "uint256",
              "name": "auctionId",
              "type": "uint256"
            }
          ],
          "internalType": "struct NFTAuction.Auction",
          "name": "",
          "type": "tuple"
        }
      ],
      "stateMutability": "view",
      "type": "function"
    },
    {
      "inputs": [
        {
          "internalType": "address",
          "name": "tokenAddress",
          "type": "address"
        }
      ],
      "name": "getPriceFeed",
      "outputs": [
        {
          "internalType": "address",
          "name": "",
          "type": "address"
        }
      ],
      "stateMutability": "view",
      "type": "function"
    },
    {
      "inputs": [],
      "name": "getVersion",
      "outputs": [
        {
          "internalType": "string",
          "name": "",
          "type": "string"
        }
      ],
      "stateMutability": "pure",
      "type": "function"
    },
    {
      "inputs": [
        {
          "internalType": "address",
          "name": "_seller",
          "type": "address"
        },
        {
          "internalType": "uint256",
          "name": "_duration",
          "type": "uint256"
        },
        {
          "internalType": "uint256",
          "name": "_startPrice",
          "type": "uint256"
        },
        {
          "internalType": "address",
          "name": "_payTokenType",
          "type": "address"
        },
        {
          "internalType": "uint256",
          "name": "_tokenId",
          "type": "uint256"
        },
        {
          "internalType": "address",
          "name": "_nftContractAddress",
          "type": "address"
        },
        {
          "internalType": "address",
          "name": "_factoryAddress",
          "type": "address"
        },
        {
          "internalType": "uint256",
          "name": "_auctionId",
          "type": "uint256"
        }
      ],
      "name": "initialize",
      "outputs": [],
      "stateMutability": "nonpayable",
      "type": "function"
    },
    {
      "inputs": [],
      "name": "initializeV2",
      "outputs": [],
      "stateMutability": "nonpayable",
      "type": "function"
    },
    {
      "inputs": [
        {
          "internalType": "address",
          "name": "",
          "type": "address"
        },
        {
          "internalType": "address",
          "name": "",
          "type": "address"
        },
        {
          "internalType": "uint256",
          "name": "",
          "type": "uint256"
        },
        {
          "internalType": "bytes",
          "name": "",
          "type": "bytes"
        }
      ],
      "name": "onERC721Received",
      "outputs": [
        {
          "internalType": "bytes4",
          "name": "",
          "type": "bytes4"
        }
      ],
      "stateMutability": "pure",
      "type": "function"
    },
    {
      "inputs": [],
      "name": "owner",
      "outputs": [
        {
          "internalType": "address",
          "name": "",
          "type": "address"
        }
      ],
      "stateMutability": "view",
      "type": "function"
    },
    {
      "inputs": [
        {
          "internalType": "address",
          "name": "",
          "type": "address"
        }
      ],
      "name": "priceFeeds",
      "outputs": [
        {
          "internalType": "contract AggregatorV3Interface",
          "name": "",
          "type": "address"
        }
      ],
      "stateMutability": "view",
      "type": "function"
    },
    {
      "inputs": [],
      "name": "proxiableUUID",
      "outputs": [
        {
          "internalType": "bytes32",
          "name": "",
          "type": "bytes32"
        }
      ],
      "stateMutability": "view",
      "type": "function"
    },
    {
      "inputs": [],
      "name": "renounceOwnership",
      "outputs": [],
      "stateMutability": "nonpayable",
      "type": "function"
    },
    {
      "inputs": [
        {
          "internalType": "address",
          "name": "tokenAddress",
          "type": "address"
        },
        {
          "internalType": "address",
          "name": "priceFeedAddress",
          "type": "address"
        }
      ],
      "name": "setPriceFeed",
      "outputs": [],
      "stateMutability": "nonpayable",
      "type": "function"
    },
    {
      "inputs": [
        {
          "internalType": "address",
          "name": "newOwner",
          "type": "address"
        }
      ],
      "name": "transferOwnership",
      "outputs": [],
      "stateMutability": "nonpayable",
      "type": "function"
    },
    {
      "inputs": [
        {
          "internalType": "address",
          "name": "newImplementation",
          "type": "address"
        },
        {
          "internalType": "bytes",
          "name": "data",
          "type": "bytes"
        }
      ],
      "name": "upgradeToAndCall",
      "outputs": [],
      "stateMutability": "payable",
      "type": "function"
    }
  ],
  "bytecode": "0x60a080604052346029573060805261221c908161002f82396080518181816110eb01526111bc0152f35b600080fdfe6080604052600436101561001257600080fd5b6000803560e01c80630d8e6e2c14611918578063150b7a02146118a25780633e87deea146113915780634f1ef2861461114057806352d1902d146110d857806359d667a514610aff5780635b6cca80146107935780635cd8a76b146109c9578063715018a61461095f57806376e11286146108b85780637d9f6db51461080a5780638da5cb5b146107d45780639dcb511a14610793578063ad3cb1cc14610746578063d94a350514610597578063f2fde38b1461056d5763fe67a54b146100d857600080fd5b3461042f578060031936011261042f5760075460ff81166105345761010260015460035490611a58565b42106104fb5760ff191660011760075560095460055482916001600160a01b039081169116156104425760018060a01b036005541661018481604051610149606082611a1a565b602381527f686173206269646465722c207472616e73666572206e667420746f206269646460208201526232b91d60e91b6040820152612088565b600854823b1561043d57604051632142170760e11b81523060048201526001600160a01b0392909216602483015260448201529082908290606490829084905af180156104325761041a575b505060018060a01b0381541660018060a01b0360075460081c1660065460026000805160206121a7833981519152541461040b5760026000805160206121a78339815191525582156103c657801561038c578391806102985750818080926040956102708188516102418a82611a1a565b601781527f7472616e736665722065746820746f206269646465723a0000000000000000006020820152612088565b82f11561028e57505b60016000805160206121a78339815191525580f35b51903d90823e3d90fd5b915060209060446040946102e08187516102b28982611a1a565b601981527f7472616e7366657220657263323020746f206269646465723a0000000000000087820152612088565b868651958694859363a9059cbb60e01b8552600485015260248401525af1908115610380578391610351575b50156103185750610279565b5162461bcd60e51b8152602060048201526013602482015272115490cc8c081c99599d5b990819985a5b1959606a1b6044820152606490fd5b610373915060203d602011610379575b61036b8183611a1a565b810190611a7b565b3861030c565b503d610361565b505051903d90823e3d90fd5b60405162461bcd60e51b81526020600482015260126024820152710616d6f756e74206d757374206265203e20360741b6044820152606490fd5b60405162461bcd60e51b815260206004820152601a60248201527f526563697069656e742061646472657373206e6f7420626520300000000000006044820152606490fd5b633ee5aeb560e01b8452600484fd5b8161042491611a1a565b61042f5780386101d0565b80fd5b6040513d84823e3d90fd5b505050fd5b9060018060a01b0381541661048e8160405161045f604082611a1a565b602081527f6e6f206269646465722c2072657475726e206e667420746f2073656c6c65723a6020820152612088565b600854833b156104f757604051632142170760e11b81523060048201526001600160a01b0392909216602483015260448201529181908390606490829084905af180156104ea576104de57505080f35b6104e791611a1a565b80f35b50604051903d90823e3d90fd5b8280fd5b60405162461bcd60e51b8152602060048201526011602482015270185d58dd1a5bdb881b9bdd08195b991959607a1b6044820152606490fd5b60405162461bcd60e51b8152602060048201526011602482015270185d58dd1a5bdb881a185908195b991959607a1b6044820152606490fd5b503461042f57602036600319011261042f576104e761058a6119b6565b610592612052565b611a93565b503461042f578060031936011261042f57806101a0916101806040516105bc816119e7565b8281528260208201528260408201528260608201528260808201528260a08201528260c08201528260e082015282610100820152826101208201528261014082015282610160820152015260405190610614826119e7565b60018060a01b03905416908181526001546020820190815260025460408301908152600354606084019081526004546080850190815260018060a01b03600554169060a0860191825260065460c087019081526007549260e088019260ff85161515845261010089019460018060a01b039060081c168552600854956101208a0196875260018060a01b0360095416976101408b0198895260018060a01b03600a5416996101608c019a8b52610180600b549c019b8c526040519c8d525160208d01525160408c01525160608b01525160808a015260018060a01b0390511660a08901525160c088015251151560e087015260018060a01b039051166101008601525161012085015260018060a01b0390511661014084015260018060a01b0390511661016083015251610180820152f35b503461042f578060031936011261042f575061078f604051610769604082611a1a565b60058152640352e302e360dc1b6020820152604051918291602083526020830190611991565b0390f35b503461042f57602036600319011261042f576020906001600160a01b036107b86119b6565b168152600c8252604060018060a01b0391205416604051908152f35b503461042f578060031936011261042f57600080516020612167833981519152546040516001600160a01b039091168152602090f35b503461042f578060031936011261042f575460015460025460035460045460055460065460075460088054600954600a54600b54604080516001600160a01b039e8f168152602081019d909d528c019a909a5260608b019890985260808a019690965293891660a089015260c088019290925260ff8116151560e0880152901c861661010086015261012085015284166101408401529092166101608201526101808101919091526101a090f35b503461042f57604036600319011261042f576108d26119b6565b6108da6119d1565b6108e2612052565b6001600160a01b031690811561091a576001600160a01b03168252600c6020526040822080546001600160a01b031916909117905580f35b60405162461bcd60e51b815260206004820152601a60248201527f496e76616c6964207072696365206665656420616464726573730000000000006044820152606490fd5b503461042f578060031936011261042f57610978612052565b60008051602061216783398151915280546001600160a01b0319811690915581906001600160a01b03167f8be0079c531659141344cd1fd0a4f28419497f9722a3daafe3b4186f6b6457e08280a380f35b503461042f578060031936011261042f576000805160206121c78339815191525460ff8160401c16908115610ae9575b50610ada576000805160206121c7833981519152805468ffffffffffffffffff19166801000000000000000217905560008051602061216783398151915254610a63906001600160a01b0316610a4d6120d7565b610a556120d7565b610a5e81611a93565b611ffc565b610a6b6120d7565b610a736120d7565b60016000805160206121a78339815191525560ff60401b196000805160206121c783398151915254166000805160206121c7833981519152557fc7f505b2f371ae2175ee4913f4499e1f2633a7b5936321eed1cdaeb6115181d2602060405160028152a180f35b63f92ee8a960e01b8152600490fd5b6002915067ffffffffffffffff161015386109f9565b50604036600319011261042f57610b146119b6565b602435610b2660015460035490611a58565b42101561109f5782546001600160a01b03163314611066576001600160a01b0382168015908115610f5b57823403610f16575b610b61611c01565b91604092610b92818551610b758782611a1a565b600b81526a1a1a59da1d195cdd1554d160aa1b6020820152611d68565b828752600c602052838720546001600160a01b031615610ed357610bb68587611e38565b610be3818651610bc68882611a1a565b600b81526a62696455534456616c756560a81b6020820152611d68565b1115610e8f5715610ded575b506005546001600160a01b0316801590811580610de2575b610c4c575b5050600580546001600160a01b031916331790555060065560078054610100600160a81b03191660089290921b610100600160a81b031691909117905580f35b60018060a01b0360075460081c166006549260026000805160206121a78339815191525414610dd35760026000805160206121a783398151915255610d8f578215610d56578692919080610cdc57508280928192610cb08188516102418a82611a1a565b82f115610cd357505b60016000805160206121a783398151915255388080610c0c565b513d84823e3d90fd5b926020929160449150610cf58187516102b28982611a1a565b888651958694859363a9059cbb60e01b8552600485015260248401525af1908115610d4c578591610d2d575b50156103185750610cb9565b610d46915060203d6020116103795761036b8183611a1a565b38610d21565b82513d87823e3d90fd5b835162461bcd60e51b81526020600482015260126024820152710616d6f756e74206d757374206265203e20360741b6044820152606490fd5b835162461bcd60e51b815260206004820152601a60248201527f526563697069656e742061646472657373206e6f7420626520300000000000006044820152606490fd5b633ee5aeb560e01b8852600488fd5b506006541515610c07565b81516323b872dd60e01b815233600482015230602482015260448101849052906020908290606490829089905af1908115610d4c578591610e70575b5015610e355738610bef565b5162461bcd60e51b8152602060048201526015602482015274115490cc8c081d1c985b9cd9995c8819985a5b1959605a1b6044820152606490fd5b610e89915060203d6020116103795761036b8183611a1a565b38610e29565b825162461bcd60e51b815260206004820152601c60248201527f62696420616d6f756e74206e656564203e2068696768657374426964000000006044820152606490fd5b6064845162461bcd60e51b815260206004820152602060248201527f50726963652066656564206e6f742073657420666f722062696420746f6b656e6044820152fd5b60405162461bcd60e51b815260206004820152601f60248201527f45544820626964206e6565642076616c756520657175616c20616d6f756e74006044820152606490fd5b3461102157604051636eb1769f60e11b8152336004820152306024820152602081604481855afa80156110165784918791610fdd575b501015610b595760405162461bcd60e51b815260206004820152601a60248201527f455243323020616c6c6f77616e6365206e6f7420656e6f7567680000000000006044820152606490fd5b9150506020813d60201161100e575b81610ff960209383611a1a565b8101031261100a5783905138610f91565b8580fd5b3d9150610fec565b6040513d88823e3d90fd5b60405162461bcd60e51b815260206004820152601b60248201527f455243323020626964206e656564206e6f742073656e642045544800000000006044820152606490fd5b60405162461bcd60e51b815260206004820152601160248201527014d95b1b195c8818d85b9b9bdd08189a59607a1b6044820152606490fd5b60405162461bcd60e51b8152602060048201526011602482015270105d58dd1a5bdb881a185cc8195b991959607a1b6044820152606490fd5b503461042f578060031936011261042f577f00000000000000000000000000000000000000000000000000000000000000006001600160a01b031630036111315760206040516000805160206121878339815191528152f35b63703e46dd60e11b8152600490fd5b50604036600319011261042f576111556119b6565b6024359067ffffffffffffffff82116104f757366023830112156104f7578160040135908361118383611a3c565b936111916040519586611a1a565b838552602085019336602482840101116104f757806024602093018637850101526001600160a01b037f00000000000000000000000000000000000000000000000000000000000000001630811490811561136e575b5061135f576111f4612052565b6040516352d1902d60e01b81526001600160a01b0382169390602081600481885afa869181611327575b5061123757634c9c8ce360e01b86526004859052602486fd5b93846000805160206121878339815191528796036113155750823b156113035760008051602061218783398151915280546001600160a01b031916821790558491907fbc7cd75a20ee27fd9adebab32041f755214dbc6bffa90cc0225b39da2e5c2d3b8380a28051156112e8576112dc9382915190845af43d156112e0573d916112c083611a3c565b926112ce6040519485611a1a565b83523d85602085013e612105565b5080f35b606091612105565b50505050346112f45780f35b63b398979f60e01b8152600490fd5b634c9c8ce360e01b8552600452602484fd5b632a87526960e21b8652600452602485fd5b9091506020813d602011611357575b8161134360209383611a1a565b810103126113535751903861121e565b8680fd5b3d9150611336565b63703e46dd60e11b8452600484fd5b600080516020612187833981519152546001600160a01b031614159050386111e7565b503461042f5761010036600319011261042f576113ac6119b6565b6064356001600160a01b03811690602435906044359083810361100a5760a4356001600160a01b03811692608435929184900361189e5760c4356001600160a01b038116959086900361189a5760e435966000805160206121c7833981519152549867ffffffffffffffff60ff8b60401c16159a1680159081611892575b6001149081611888575b15908161187f575b506118705789600167ffffffffffffffff196000805160206121c78339815191525416176000805160206121c783398151915255611839575b61147d6120d7565b6114856120d7565b61148e33611a93565b6114966120d7565b61149e6120d7565b6114a66120d7565b60016000805160206121a7833981519152556001600160a01b03169081156117fb5786156117c0578215611770576040516331a9108f60e11b8152600481018790526020816024818b5afa80156117655783918d9161171c575b506001600160a01b0316036116d75761018089918c8052600c60205260408d2073694aa1769357215de4fac081bf1f309adc3253066001600160601b0360a01b82541617905573a2f78ab2355fe2f984d808b5cee7fd0a93d5270e8d52600c60205260408d2073a2f78ab2355fe2f984d808b5cee7fd0a93d5270e6001600160601b0360a01b82541617905560405190611599826119e7565b8482524260208301528d60408301528560608301528660808301528d60a08301528d60c08301528d60e083015261010082015287610120820152886101408201528961016082015201526001600160601b0360a01b8a541617895542600155886002556003556004556001600160601b0360a01b600554166005558660065560ff196007541660075560075490610100600160a81b0390610100600160a81b039060081b161690610100600160a81b031916176007556008556001600160601b0360a01b60095416176009556001600160601b0360a01b600a541617600a55600b556116825780f35b60ff60401b196000805160206121c783398151915254166000805160206121c7833981519152557fc7f505b2f371ae2175ee4913f4499e1f2633a7b5936321eed1cdaeb6115181d2602060405160018152a180f35b60405162461bcd60e51b815260206004820152601b60248201527f53656c6c657220646f6573206e6f74206f776e20746865204e465400000000006044820152606490fd5b9150506020813d60201161175d575b8161173860209383611a1a565b8101031261175957516001600160a01b038116810361175957829038611500565b8b80fd5b3d915061172b565b6040513d8e823e3d90fd5b60405162461bcd60e51b815260206004820152602260248201527f4475726174696f6e206d7573742062652067726561746572207468616e207a65604482015261726f60f01b6064820152608490fd5b60405162461bcd60e51b8152602060048201526013602482015272496e76616c6964204e4654206164647265737360681b6044820152606490fd5b60405162461bcd60e51b8152602060048201526016602482015275496e76616c69642073656c6c6572206164647265737360501b6044820152606490fd5b6801000000000000000060ff60401b196000805160206121c78339815191525416176000805160206121c783398151915255611475565b63f92ee8a960e01b8b5260048bfd5b9050153861143c565b303b159150611434565b8b915061142a565b8880fd5b8780fd5b503461042f57608036600319011261042f576118bc6119b6565b506118c56119d1565b5060643567ffffffffffffffff8111611914573660238201121561191457806004013567ffffffffffffffff81116104f7573691016024011161042f57604051630a85bd0160e11b8152602090f35b5080fd5b503461042f578060031936011261042f575061078f60405161193b604082611a1a565b6012815271053696d706c6541756374696f6e2056322e360741b6020820152604051918291602083526020830190611991565b60005b8381106119815750506000910152565b8181015183820152602001611971565b906020916119aa8151809281855285808601910161196e565b601f01601f1916010190565b600435906001600160a01b03821682036119cc57565b600080fd5b602435906001600160a01b03821682036119cc57565b6101a0810190811067ffffffffffffffff821117611a0457604052565b634e487b7160e01b600052604160045260246000fd5b90601f8019910116810190811067ffffffffffffffff821117611a0457604052565b67ffffffffffffffff8111611a0457601f01601f191660200190565b91908201809211611a6557565b634e487b7160e01b600052601160045260246000fd5b908160209103126119cc575180151581036119cc5790565b6001600160a01b03811615611aad57611aab90611ffc565b565b631e4fbdf760e01b600052600060045260246000fd5b15611aca57565b60405162461bcd60e51b815260206004820152601f60248201527f50726963652066656564206e6f742073657420666f7220706179546f6b656e006044820152606490fd5b519069ffffffffffffffffffff821682036119cc57565b908160a09103126119cc57611b3a81611b0f565b91602082015191604081015191611b58608060608401519301611b0f565b90565b15611b6257565b60405162461bcd60e51b815260206004820152601760248201527f496e76616c69642070726963652066726f6d20666565640000000000000000006044820152606490fd5b908160209103126119cc575160ff811681036119cc5790565b81810292918115918404141715611a6557565b604d8111611a6557600a0a90565b8115611beb570490565b634e487b7160e01b600052601260045260246000fd5b60075460081c6001600160a01b039081166000818152600c602052604090205490911690611c30821515611ac3565b604051633fabe5a360e21b81529160a083600481845afa928315611d2057600093611d2c575b506020600491611c6860008613611b5b565b60405163313ce56760e01b815292839182905afa8015611d205760ff91600091611cf1575b5016906004549060018060a01b0360055416611ce7575b611cd157611cb29192611bc0565b90600c019081600c11611a6557611ccb611b5892611bd3565b90611be1565b611ce1611ccb91611b5894611bc0565b91611bd3565b6006549150611ca4565b611d13915060203d602011611d19575b611d0b8183611a1a565b810190611ba7565b38611c8d565b503d611d01565b6040513d6000823e3d90fd5b6004919350611d5460209160a03d60a011611d61575b611d4c8183611a1a565b810190611b26565b5050509050939150611c56565b503d611d42565b611d98611dac600093928493604051938492632d839cb360e21b6020850152604060248501526064840190611991565b90604483015203601f198101835282611a1a565b6020815191016a636f6e736f6c652e6c6f675afa50565b600060443d10611b58576040513d600319016004823e8051913d602484011167ffffffffffffffff841117611e32578282019283519167ffffffffffffffff8311611e2a573d84016003190185840160200111611e2a5750611b5892910160200190611a1a565b949350505050565b92915050565b6001600160a01b039081166000818152600c602052604090205490911691611e61831515611ac3565b604051633fabe5a360e21b81529260a084600481845afa60009481611fd6575b50611f7057600060033d11611f5e575b6308c379a014611eda575b60405162461bcd60e51b8152602060048201526016602482015275141c9a58d948199959590818d85b1b0819985a5b195960521b6044820152606490fd5b611ee2611dc3565b80611eed5750611e9c565b611f5a90611f3a60326040518093710283934b1b2903332b2b21032b93937b91d160751b6020830152611f29815180926020868601910161196e565b81010301601f198101835282611a1a565b60405162461bcd60e51b8152602060048201529182916024830190611991565b0390fd5b5060046000803e60005160e01c611e91565b6020600491611f8160008713611b5b565b60405163313ce56760e01b815292839182905afa8015611d205760ff91600091611fb7575b501691611cd157611cb29192611bc0565b611fd0915060203d602011611d1957611d0b8183611a1a565b38611fa6565b611ff091955060a03d60a011611d6157611d4c8183611a1a565b50505090509338611e81565b60008051602061216783398151915280546001600160a01b039283166001600160a01b0319821681179092559091167f8be0079c531659141344cd1fd0a4f28419497f9722a3daafe3b4186f6b6457e0600080a3565b600080516020612167833981519152546001600160a01b0316330361207357565b63118cdaa760e01b6000523360045260246000fd5b6120b8611dac60009392849360405193849263319af33360e01b6020850152604060248501526064840190611991565b6001600160a01b0391909116604483015203601f198101835282611a1a565b60ff6000805160206121c78339815191525460401c16156120f457565b631afcd79f60e31b60005260046000fd5b9061212b575080511561211a57602081519101fd5b63d6bda27560e01b60005260046000fd5b8151158061215d575b61213c575090565b639996b31560e01b60009081526001600160a01b0391909116600452602490fd5b50803b1561213456fe9016d09d72d40fdae2fd8ceac6b6234c7706214fd39c1cd1e609a0528c199300360894a13ba1a3210667c828492db98dca3e2076cc3735a920a3ca505d382bbc9b779b17422d0df92223018b32b4d1fa46e071723d6817e2486d003becc55f00f0c57e16840df040f15088dc2f81fe391c3923bec73e23a9662efc9c229c6a00a264697066735822122032d10434aa53e8faf9131c42a31bcebc1f5965abbf55069e5f29a4e856e4d1cc64736f6c634300081c0033",
  "linkReferences": {},
  "deployedLinkReferences": {}
}