{
  "_format": "hh-sol-artifact-1",
  "contractName": "NFTAuctionV2",
  "sourceName": "contracts/NFTAuctionV2.sol",
  "abi": [
    {
      "inputs": [
        {
          "internalType": "address",
          "name": "target",
          "type": "address"
        }
      ],
      "name": "AddressEmptyCode",
      "type": "error"
    },
    {
      "inputs": [
        {
          "internalType": "address",
          "name": "implementation",
          "type": "address"
        }
      ],
      "name": "ERC1967InvalidImplementation",
      "type": "error"
    },
    {
      "inputs": [],
      "name": "ERC1967NonPayable",
      "type": "error"
    },
    {
      "inputs": [],
      "name": "FailedCall",
      "type": "error"
    },
    {
      "inputs": [],
      "name": "InvalidInitialization",
      "type": "error"
    },
    {
      "inputs": [],
      "name": "NotInitializing",
      "type": "error"
    },
    {
      "inputs": [
        {
          "internalType": "address",
          "name": "owner",
          "type": "address"
        }
      ],
      "name": "OwnableInvalidOwner",
      "type": "error"
    },
    {
      "inputs": [
        {
          "internalType": "address",
          "name": "account",
          "type": "address"
        }
      ],
      "name": "OwnableUnauthorizedAccount",
      "type": "error"
    },
    {
      "inputs": [],
      "name": "ReentrancyGuardReentrantCall",
      "type": "error"
    },
    {
      "inputs": [],
      "name": "UUPSUnauthorizedCallContext",
      "type": "error"
    },
    {
      "inputs": [
        {
          "internalType": "bytes32",
          "name": "slot",
          "type": "bytes32"
        }
      ],
      "name": "UUPSUnsupportedProxiableUUID",
      "type": "error"
    },
    {
      "anonymous": false,
      "inputs": [
        {
          "indexed": false,
          "internalType": "uint64",
          "name": "version",
          "type": "uint64"
        }
      ],
      "name": "Initialized",
      "type": "event"
    },
    {
      "anonymous": false,
      "inputs": [
        {
          "indexed": true,
          "internalType": "address",
          "name": "previousOwner",
          "type": "address"
        },
        {
          "indexed": true,
          "internalType": "address",
          "name": "newOwner",
          "type": "address"
        }
      ],
      "name": "OwnershipTransferred",
      "type": "event"
    },
    {
      "anonymous": false,
      "inputs": [
        {
          "indexed": true,
          "internalType": "address",
          "name": "implementation",
          "type": "address"
        }
      ],
      "name": "Upgraded",
      "type": "event"
    },
    {
      "inputs": [],
      "name": "UPGRADE_INTERFACE_VERSION",
      "outputs": [
        {
          "internalType": "string",
          "name": "",
          "type": "string"
        }
      ],
      "stateMutability": "view",
      "type": "function"
    },
    {
      "inputs": [],
      "name": "auction",
      "outputs": [
        {
          "internalType": "address",
          "name": "seller",
          "type": "address"
        },
        {
          "internalType": "uint256",
          "name": "startTime",
          "type": "uint256"
        },
        {
          "internalType": "uint256",
          "name": "endTime",
          "type": "uint256"
        },
        {
          "internalType": "uint256",
          "name": "duration",
          "type": "uint256"
        },
        {
          "internalType": "uint256",
          "name": "startPrice",
          "type": "uint256"
        },
        {
          "internalType": "address",
          "name": "highestBidder",
          "type": "address"
        },
        {
          "internalType": "uint256",
          "name": "highestBid",
          "type": "uint256"
        },
        {
          "internalType": "bool",
          "name": "ended",
          "type": "bool"
        },
        {
          "internalType": "address",
          "name": "payTokenType",
          "type": "address"
        },
        {
          "internalType": "uint256",
          "name": "tokenId",
          "type": "uint256"
        },
        {
          "internalType": "address",
          "name": "nftContractAddress",
          "type": "address"
        },
        {
          "internalType": "address",
          "name": "factoryAddress",
          "type": "address"
        },
        {
          "internalType": "uint256",
          "name": "auctionId",
          "type": "uint256"
        }
      ],
      "stateMutability": "view",
      "type": "function"
    },
    {
      "inputs": [
        {
          "internalType": "address",
          "name": "_payTokenType",
          "type": "address"
        },
        {
          "internalType": "uint256",
          "name": "_amount",
          "type": "uint256"
        }
      ],
      "name": "bid",
      "outputs": [],
      "stateMutability": "payable",
      "type": "function"
    },
    {
      "inputs": [],
      "name": "endAuction",
      "outputs": [],
      "stateMutability": "nonpayable",
      "type": "function"
    },
    {
      "inputs": [],
      "name": "getAuctionInfo",
      "outputs": [
        {
          "components": [
            {
              "internalType": "address",
              "name": "seller",
              "type": "address"
            },
            {
              "internalType": "uint256",
              "name": "startTime",
              "type": "uint256"
            },
            {
              "internalType": "uint256",
              "name": "endTime",
              "type": "uint256"
            },
            {
              "internalType": "uint256",
              "name": "duration",
              "type": "uint256"
            },
            {
              "internalType": "uint256",
              "name": "startPrice",
              "type": "uint256"
            },
            {
              "internalType": "address",
              "name": "highestBidder",
              "type": "address"
            },
            {
              "internalType": "uint256",
              "name": "highestBid",
              "type": "uint256"
            },
            {
              "internalType": "bool",
              "name": "ended",
              "type": "bool"
            },
            {
              "internalType": "address",
              "name": "payTokenType",
              "type": "address"
            },
            {
              "internalType": "uint256",
              "name": "tokenId",
              "type": "uint256"
            },
            {
              "internalType": "address",
              "name": "nftContractAddress",
              "type": "address"
            },
            {
              "internalType": "address",
              "name": "factoryAddress",
              "type": "address"
            },
            {
              "internalType": "uint256",
              "name": "auctionId",
              "type": "uint256"
            }
          ],
          "internalType": "struct NFTAuction.Auction",
          "name": "",
          "type": "tuple"
        }
      ],
      "stateMutability": "view",
      "type": "function"
    },
    {
      "inputs": [
        {
          "internalType": "address",
          "name": "tokenAddress",
          "type": "address"
        }
      ],
      "name": "getPriceFeed",
      "outputs": [
        {
          "internalType": "address",
          "name": "",
          "type": "address"
        }
      ],
      "stateMutability": "view",
      "type": "function"
    },
    {
      "inputs": [],
      "name": "getVersion",
      "outputs": [
        {
          "internalType": "string",
          "name": "",
          "type": "string"
        }
      ],
      "stateMutability": "pure",
      "type": "function"
    },
    {
      "inputs": [
        {
          "internalType": "address",
          "name": "_seller",
          "type": "address"
        },
        {
          "internalType": "uint256",
          "name": "_duration",
          "type": "uint256"
        },
        {
          "internalType": "uint256",
          "name": "_startPrice",
          "type": "uint256"
        },
        {
          "internalType": "address",
          "name": "_payTokenType",
          "type": "address"
        },
        {
          "internalType": "uint256",
          "name": "_tokenId",
          "type": "uint256"
        },
        {
          "internalType": "address",
          "name": "_nftContractAddress",
          "type": "address"
        },
        {
          "internalType": "address",
          "name": "_factoryAddress",
          "type": "address"
        },
        {
          "internalType": "uint256",
          "name": "_auctionId",
          "type": "uint256"
        }
      ],
      "name": "initialize",
      "outputs": [],
      "stateMutability": "nonpayable",
      "type": "function"
    },
    {
      "inputs": [
        {
          "internalType": "address",
          "name": "",
          "type": "address"
        },
        {
          "internalType": "address",
          "name": "",
          "type": "address"
        },
        {
          "internalType": "uint256",
          "name": "",
          "type": "uint256"
        },
        {
          "internalType": "bytes",
          "name": "",
          "type": "bytes"
        }
      ],
      "name": "onERC721Received",
      "outputs": [
        {
          "internalType": "bytes4",
          "name": "",
          "type": "bytes4"
        }
      ],
      "stateMutability": "pure",
      "type": "function"
    },
    {
      "inputs": [],
      "name": "owner",
      "outputs": [
        {
          "internalType": "address",
          "name": "",
          "type": "address"
        }
      ],
      "stateMutability": "view",
      "type": "function"
    },
    {
      "inputs": [
        {
          "internalType": "address",
          "name": "",
          "type": "address"
        }
      ],
      "name": "priceFeeds",
      "outputs": [
        {
          "internalType": "contract AggregatorV3Interface",
          "name": "",
          "type": "address"
        }
      ],
      "stateMutability": "view",
      "type": "function"
    },
    {
      "inputs": [],
      "name": "proxiableUUID",
      "outputs": [
        {
          "internalType": "bytes32",
          "name": "",
          "type": "bytes32"
        }
      ],
      "stateMutability": "view",
      "type": "function"
    },
    {
      "inputs": [],
      "name": "renounceOwnership",
      "outputs": [],
      "stateMutability": "nonpayable",
      "type": "function"
    },
    {
      "inputs": [
        {
          "internalType": "address",
          "name": "tokenAddress",
          "type": "address"
        },
        {
          "internalType": "address",
          "name": "priceFeedAddress",
          "type": "address"
        }
      ],
      "name": "setPriceFeed",
      "outputs": [],
      "stateMutability": "nonpayable",
      "type": "function"
    },
    {
      "inputs": [
        {
          "internalType": "address",
          "name": "newOwner",
          "type": "address"
        }
      ],
      "name": "transferOwnership",
      "outputs": [],
      "stateMutability": "nonpayable",
      "type": "function"
    },
    {
      "inputs": [
        {
          "internalType": "address",
          "name": "newImplementation",
          "type": "address"
        },
        {
          "internalType": "bytes",
          "name": "data",
          "type": "bytes"
        }
      ],
      "name": "upgradeToAndCall",
      "outputs": [],
      "stateMutability": "payable",
      "type": "function"
    }
  ],
  "bytecode": "0x60a08060405234602957306080526120b9908161002f8239608051818181610faa015261107b0152f35b600080fdfe6080604052600436101561001257600080fd5b6000803560e01c80630d8e6e2c146117c5578063150b7a021461174f5780633e87deea146112505780634f1ef28614610fff57806352d1902d14610f9757806359d667a5146109be5780635b6cca8014610788578063715018a61461095457806376e11286146108ad5780637d9f6db5146107ff5780638da5cb5b146107c95780639dcb511a14610788578063ad3cb1cc1461073b578063d94a35051461058c578063f2fde38b146105625763fe67a54b146100cd57600080fd5b3461042457806003193601126104245760075460ff8116610529576100f760015460035490611905565b42106104f05760ff191660011760075560095460055482916001600160a01b039081169116156104375760018060a01b03600554166101798160405161013e6060826118c7565b602381527f686173206269646465722c207472616e73666572206e667420746f206269646460208201526232b91d60e91b6040820152611f25565b600854823b1561043257604051632142170760e11b81523060048201526001600160a01b0392909216602483015260448201529082908290606490829084905af180156104275761040f575b505060018060a01b0381541660018060a01b0360075460081c16600654600260008051602061204483398151915254146104005760026000805160206120448339815191525582156103bb5780156103815783918061028d5750818080926040956102658188516102368a826118c7565b601781527f7472616e736665722065746820746f206269646465723a0000000000000000006020820152611f25565b82f11561028357505b60016000805160206120448339815191525580f35b51903d90823e3d90fd5b915060209060446040946102d58187516102a789826118c7565b601981527f7472616e7366657220657263323020746f206269646465723a0000000000000087820152611f25565b868651958694859363a9059cbb60e01b8552600485015260248401525af1908115610375578391610346575b501561030d575061026e565b5162461bcd60e51b8152602060048201526013602482015272115490cc8c081c99599d5b990819985a5b1959606a1b6044820152606490fd5b610368915060203d60201161036e575b61036081836118c7565b810190611928565b38610301565b503d610356565b505051903d90823e3d90fd5b60405162461bcd60e51b81526020600482015260126024820152710616d6f756e74206d757374206265203e20360741b6044820152606490fd5b60405162461bcd60e51b815260206004820152601a60248201527f526563697069656e742061646472657373206e6f7420626520300000000000006044820152606490fd5b633ee5aeb560e01b8452600484fd5b81610419916118c7565b6104245780386101c5565b80fd5b6040513d84823e3d90fd5b505050fd5b9060018060a01b03815416610483816040516104546040826118c7565b602081527f6e6f206269646465722c2072657475726e206e667420746f2073656c6c65723a6020820152611f25565b600854833b156104ec57604051632142170760e11b81523060048201526001600160a01b0392909216602483015260448201529181908390606490829084905af180156104df576104d357505080f35b6104dc916118c7565b80f35b50604051903d90823e3d90fd5b8280fd5b60405162461bcd60e51b8152602060048201526011602482015270185d58dd1a5bdb881b9bdd08195b991959607a1b6044820152606490fd5b60405162461bcd60e51b8152602060048201526011602482015270185d58dd1a5bdb881a185908195b991959607a1b6044820152606490fd5b5034610424576020366003190112610424576104dc61057f611863565b610587611eef565b611940565b5034610424578060031936011261042457806101a0916101806040516105b181611894565b8281528260208201528260408201528260608201528260808201528260a08201528260c08201528260e08201528261010082015282610120820152826101408201528261016082015201526040519061060982611894565b60018060a01b03905416908181526001546020820190815260025460408301908152600354606084019081526004546080850190815260018060a01b03600554169060a0860191825260065460c087019081526007549260e088019260ff85161515845261010089019460018060a01b039060081c168552600854956101208a0196875260018060a01b0360095416976101408b0198895260018060a01b03600a5416996101608c019a8b52610180600b549c019b8c526040519c8d525160208d01525160408c01525160608b01525160808a015260018060a01b0390511660a08901525160c088015251151560e087015260018060a01b039051166101008601525161012085015260018060a01b0390511661014084015260018060a01b0390511661016083015251610180820152f35b50346104245780600319360112610424575061078460405161075e6040826118c7565b60058152640352e302e360dc1b602082015260405191829160208352602083019061183e565b0390f35b5034610424576020366003190112610424576020906001600160a01b036107ad611863565b168152600c8252604060018060a01b0391205416604051908152f35b5034610424578060031936011261042457600080516020612004833981519152546040516001600160a01b039091168152602090f35b50346104245780600319360112610424575460015460025460035460045460055460065460075460088054600954600a54600b54604080516001600160a01b039e8f168152602081019d909d528c019a909a5260608b019890985260808a019690965293891660a089015260c088019290925260ff8116151560e0880152901c861661010086015261012085015284166101408401529092166101608201526101808101919091526101a090f35b5034610424576040366003190112610424576108c7611863565b6108cf61187e565b6108d7611eef565b6001600160a01b031690811561090f576001600160a01b03168252600c6020526040822080546001600160a01b031916909117905580f35b60405162461bcd60e51b815260206004820152601a60248201527f496e76616c6964207072696365206665656420616464726573730000000000006044820152606490fd5b503461042457806003193601126104245761096d611eef565b60008051602061200483398151915280546001600160a01b0319811690915581906001600160a01b03167f8be0079c531659141344cd1fd0a4f28419497f9722a3daafe3b4186f6b6457e08280a380f35b506040366003190112610424576109d3611863565b6024356109e560015460035490611905565b421015610f5e5782546001600160a01b03163314610f25576001600160a01b0382168015908115610e1a57823403610dd5575b610a20611af4565b91604092610a51818551610a3487826118c7565b600b81526a1a1a59da1d195cdd1554d160aa1b6020820152611c5b565b828752600c602052838720546001600160a01b031615610d9257610a758587611d2b565b610aa2818651610a8588826118c7565b600b81526a62696455534456616c756560a81b6020820152611c5b565b1115610d4e5715610cac575b506005546001600160a01b0316801590811580610ca1575b610b0b575b5050600580546001600160a01b031916331790555060065560078054610100600160a81b03191660089290921b610100600160a81b031691909117905580f35b60018060a01b0360075460081c166006549260026000805160206120448339815191525414610c9257600260008051602061204483398151915255610c4e578215610c15578692919080610b9b57508280928192610b6f8188516102368a826118c7565b82f115610b9257505b600160008051602061204483398151915255388080610acb565b513d84823e3d90fd5b926020929160449150610bb48187516102a789826118c7565b888651958694859363a9059cbb60e01b8552600485015260248401525af1908115610c0b578591610bec575b501561030d5750610b78565b610c05915060203d60201161036e5761036081836118c7565b38610be0565b82513d87823e3d90fd5b835162461bcd60e51b81526020600482015260126024820152710616d6f756e74206d757374206265203e20360741b6044820152606490fd5b835162461bcd60e51b815260206004820152601a60248201527f526563697069656e742061646472657373206e6f7420626520300000000000006044820152606490fd5b633ee5aeb560e01b8852600488fd5b506006541515610ac6565b81516323b872dd60e01b815233600482015230602482015260448101849052906020908290606490829089905af1908115610c0b578591610d2f575b5015610cf45738610aae565b5162461bcd60e51b8152602060048201526015602482015274115490cc8c081d1c985b9cd9995c8819985a5b1959605a1b6044820152606490fd5b610d48915060203d60201161036e5761036081836118c7565b38610ce8565b825162461bcd60e51b815260206004820152601c60248201527f62696420616d6f756e74206e656564203e2068696768657374426964000000006044820152606490fd5b6064845162461bcd60e51b815260206004820152602060248201527f50726963652066656564206e6f742073657420666f722062696420746f6b656e6044820152fd5b60405162461bcd60e51b815260206004820152601f60248201527f45544820626964206e6565642076616c756520657175616c20616d6f756e74006044820152606490fd5b34610ee057604051636eb1769f60e11b8152336004820152306024820152602081604481855afa8015610ed55784918791610e9c575b501015610a185760405162461bcd60e51b815260206004820152601a60248201527f455243323020616c6c6f77616e6365206e6f7420656e6f7567680000000000006044820152606490fd5b9150506020813d602011610ecd575b81610eb8602093836118c7565b81010312610ec95783905138610e50565b8580fd5b3d9150610eab565b6040513d88823e3d90fd5b60405162461bcd60e51b815260206004820152601b60248201527f455243323020626964206e656564206e6f742073656e642045544800000000006044820152606490fd5b60405162461bcd60e51b815260206004820152601160248201527014d95b1b195c8818d85b9b9bdd08189a59607a1b6044820152606490fd5b60405162461bcd60e51b8152602060048201526011602482015270105d58dd1a5bdb881a185cc8195b991959607a1b6044820152606490fd5b50346104245780600319360112610424577f00000000000000000000000000000000000000000000000000000000000000006001600160a01b03163003610ff05760206040516000805160206120248339815191528152f35b63703e46dd60e11b8152600490fd5b50604036600319011261042457611014611863565b6024359067ffffffffffffffff82116104ec57366023830112156104ec5781600401359083611042836118e9565b9361105060405195866118c7565b838552602085019336602482840101116104ec57806024602093018637850101526001600160a01b037f00000000000000000000000000000000000000000000000000000000000000001630811490811561122d575b5061121e576110b3611eef565b6040516352d1902d60e01b81526001600160a01b0382169390602081600481885afa8691816111e6575b506110f657634c9c8ce360e01b86526004859052602486fd5b93846000805160206120248339815191528796036111d45750823b156111c25760008051602061202483398151915280546001600160a01b031916821790558491907fbc7cd75a20ee27fd9adebab32041f755214dbc6bffa90cc0225b39da2e5c2d3b8380a28051156111a75761119b9382915190845af43d1561119f573d9161117f836118e9565b9261118d60405194856118c7565b83523d85602085013e611fa2565b5080f35b606091611fa2565b50505050346111b35780f35b63b398979f60e01b8152600490fd5b634c9c8ce360e01b8552600452602484fd5b632a87526960e21b8652600452602485fd5b9091506020813d602011611216575b81611202602093836118c7565b81010312611212575190386110dd565b8680fd5b3d91506111f5565b63703e46dd60e11b8452600484fd5b600080516020612024833981519152546001600160a01b031614159050386110a6565b5034610424576101003660031901126104245761126b611863565b6064356001600160a01b038116906024359060443590838103610ec95760a4356001600160a01b03811692608435929184900361174b5760c4356001600160a01b03811695908690036117475760e43596600080516020612064833981519152549860ff8a60401c16159967ffffffffffffffff81168015908161173f575b6001149081611735575b15908161172c575b5061171d5767ffffffffffffffff198116600117600080516020612064833981519152558a6116f0575b5061132f611f74565b611337611f74565b61134033611940565b611348611f74565b611350611f74565b611358611f74565b6001600080516020612044833981519152556001600160a01b03169081156116b2578615611677578215611627576040516331a9108f60e11b8152600481018790526020816024818b5afa801561161c5783918d916115d3575b506001600160a01b03160361158e5761018089918c8052600c60205260408d2073694aa1769357215de4fac081bf1f309adc3253066001600160601b0360a01b82541617905573a2f78ab2355fe2f984d808b5cee7fd0a93d5270e8d52600c60205260408d2073a2f78ab2355fe2f984d808b5cee7fd0a93d5270e6001600160601b0360a01b8254161790556040519061144b82611894565b8482524260208301528d60408301528560608301528660808301528d60a08301528d60c08301528d60e083015261010082015287610120820152886101408201528961016082015201526001600160601b0360a01b8a541617895542600155886002556003556004556001600160601b0360a01b600554166005558660065560ff196007541660075560075490610100600160a81b0390610100600160a81b039060081b161690610100600160a81b031916176007556008556001600160601b0360a01b60095416176009556001600160601b0360a01b600a541617600a55600b556115345780f35b68ff0000000000000000196000805160206120648339815191525416600080516020612064833981519152557fc7f505b2f371ae2175ee4913f4499e1f2633a7b5936321eed1cdaeb6115181d2602060405160018152a180f35b60405162461bcd60e51b815260206004820152601b60248201527f53656c6c657220646f6573206e6f74206f776e20746865204e465400000000006044820152606490fd5b9150506020813d602011611614575b816115ef602093836118c7565b8101031261161057516001600160a01b0381168103611610578290386113b2565b8b80fd5b3d91506115e2565b6040513d8e823e3d90fd5b60405162461bcd60e51b815260206004820152602260248201527f4475726174696f6e206d7573742062652067726561746572207468616e207a65604482015261726f60f01b6064820152608490fd5b60405162461bcd60e51b8152602060048201526013602482015272496e76616c6964204e4654206164647265737360681b6044820152606490fd5b60405162461bcd60e51b8152602060048201526016602482015275496e76616c69642073656c6c6572206164647265737360501b6044820152606490fd5b68ffffffffffffffffff191668010000000000000001176000805160206120648339815191525538611326565b63f92ee8a960e01b8c5260048cfd5b905015386112fc565b303b1591506112f4565b8c91506112ea565b8880fd5b8780fd5b503461042457608036600319011261042457611769611863565b5061177261187e565b5060643567ffffffffffffffff81116117c157366023820112156117c157806004013567ffffffffffffffff81116104ec573691016024011161042457604051630a85bd0160e11b8152602090f35b5080fd5b5034610424578060031936011261042457506107846040516117e86040826118c7565b6012815271053696d706c6541756374696f6e2056322e360741b602082015260405191829160208352602083019061183e565b60005b83811061182e5750506000910152565b818101518382015260200161181e565b906020916118578151809281855285808601910161181b565b601f01601f1916010190565b600435906001600160a01b038216820361187957565b600080fd5b602435906001600160a01b038216820361187957565b6101a0810190811067ffffffffffffffff8211176118b157604052565b634e487b7160e01b600052604160045260246000fd5b90601f8019910116810190811067ffffffffffffffff8211176118b157604052565b67ffffffffffffffff81116118b157601f01601f191660200190565b9190820180921161191257565b634e487b7160e01b600052601160045260246000fd5b90816020910312611879575180151581036118795790565b6001600160a01b031680156119a05760008051602061200483398151915280546001600160a01b0319811683179091556001600160a01b03167f8be0079c531659141344cd1fd0a4f28419497f9722a3daafe3b4186f6b6457e0600080a3565b631e4fbdf760e01b600052600060045260246000fd5b156119bd57565b60405162461bcd60e51b815260206004820152601f60248201527f50726963652066656564206e6f742073657420666f7220706179546f6b656e006044820152606490fd5b519069ffffffffffffffffffff8216820361187957565b908160a091031261187957611a2d81611a02565b91602082015191604081015191611a4b608060608401519301611a02565b90565b15611a5557565b60405162461bcd60e51b815260206004820152601760248201527f496e76616c69642070726963652066726f6d20666565640000000000000000006044820152606490fd5b90816020910312611879575160ff811681036118795790565b8181029291811591840414171561191257565b604d811161191257600a0a90565b8115611ade570490565b634e487b7160e01b600052601260045260246000fd5b60075460081c6001600160a01b039081166000818152600c602052604090205490911690611b238215156119b6565b604051633fabe5a360e21b81529160a083600481845afa928315611c1357600093611c1f575b506020600491611b5b60008613611a4e565b60405163313ce56760e01b815292839182905afa8015611c135760ff91600091611be4575b5016906004549060018060a01b0360055416611bda575b611bc457611ba59192611ab3565b90600c019081600c1161191257611bbe611a4b92611ac6565b90611ad4565b611bd4611bbe91611a4b94611ab3565b91611ac6565b6006549150611b97565b611c06915060203d602011611c0c575b611bfe81836118c7565b810190611a9a565b38611b80565b503d611bf4565b6040513d6000823e3d90fd5b6004919350611c4760209160a03d60a011611c54575b611c3f81836118c7565b810190611a19565b5050509050939150611b49565b503d611c35565b611c8b611c9f600093928493604051938492632d839cb360e21b602085015260406024850152606484019061183e565b90604483015203601f1981018352826118c7565b6020815191016a636f6e736f6c652e6c6f675afa50565b600060443d10611a4b576040513d600319016004823e8051913d602484011167ffffffffffffffff841117611d25578282019283519167ffffffffffffffff8311611d1d573d84016003190185840160200111611d1d5750611a4b929101602001906118c7565b949350505050565b92915050565b6001600160a01b039081166000818152600c602052604090205490911691611d548315156119b6565b604051633fabe5a360e21b81529260a084600481845afa60009481611ec9575b50611e6357600060033d11611e51575b6308c379a014611dcd575b60405162461bcd60e51b8152602060048201526016602482015275141c9a58d948199959590818d85b1b0819985a5b195960521b6044820152606490fd5b611dd5611cb6565b80611de05750611d8f565b611e4d90611e2d60326040518093710283934b1b2903332b2b21032b93937b91d160751b6020830152611e1c815180926020868601910161181b565b81010301601f1981018352826118c7565b60405162461bcd60e51b815260206004820152918291602483019061183e565b0390fd5b5060046000803e60005160e01c611d84565b6020600491611e7460008713611a4e565b60405163313ce56760e01b815292839182905afa8015611c135760ff91600091611eaa575b501691611bc457611ba59192611ab3565b611ec3915060203d602011611c0c57611bfe81836118c7565b38611e99565b611ee391955060a03d60a011611c5457611c3f81836118c7565b50505090509338611d74565b600080516020612004833981519152546001600160a01b03163303611f1057565b63118cdaa760e01b6000523360045260246000fd5b611f55611c9f60009392849360405193849263319af33360e01b602085015260406024850152606484019061183e565b6001600160a01b0391909116604483015203601f1981018352826118c7565b60ff6000805160206120648339815191525460401c1615611f9157565b631afcd79f60e31b60005260046000fd5b90611fc85750805115611fb757602081519101fd5b63d6bda27560e01b60005260046000fd5b81511580611ffa575b611fd9575090565b639996b31560e01b60009081526001600160a01b0391909116600452602490fd5b50803b15611fd156fe9016d09d72d40fdae2fd8ceac6b6234c7706214fd39c1cd1e609a0528c199300360894a13ba1a3210667c828492db98dca3e2076cc3735a920a3ca505d382bbc9b779b17422d0df92223018b32b4d1fa46e071723d6817e2486d003becc55f00f0c57e16840df040f15088dc2f81fe391c3923bec73e23a9662efc9c229c6a00a2646970667358221220f79e3690ad06417555295d9498184574dcc852ada9fe8df3c26202e1c526c4e564736f6c634300081c0033",
  "linkReferences": {},
  "deployedLinkReferences": {}
}