{
  "_format": "hh-sol-artifact-1",
  "contractName": "NFTAuction",
  "sourceName": "contracts/NFTAuction.sol",
  "abi": [
    {
      "inputs": [
        {
          "internalType": "address",
          "name": "target",
          "type": "address"
        }
      ],
      "name": "AddressEmptyCode",
      "type": "error"
    },
    {
      "inputs": [
        {
          "internalType": "address",
          "name": "implementation",
          "type": "address"
        }
      ],
      "name": "ERC1967InvalidImplementation",
      "type": "error"
    },
    {
      "inputs": [],
      "name": "ERC1967NonPayable",
      "type": "error"
    },
    {
      "inputs": [],
      "name": "FailedCall",
      "type": "error"
    },
    {
      "inputs": [],
      "name": "InvalidInitialization",
      "type": "error"
    },
    {
      "inputs": [],
      "name": "NotInitializing",
      "type": "error"
    },
    {
      "inputs": [
        {
          "internalType": "address",
          "name": "owner",
          "type": "address"
        }
      ],
      "name": "OwnableInvalidOwner",
      "type": "error"
    },
    {
      "inputs": [
        {
          "internalType": "address",
          "name": "account",
          "type": "address"
        }
      ],
      "name": "OwnableUnauthorizedAccount",
      "type": "error"
    },
    {
      "inputs": [],
      "name": "ReentrancyGuardReentrantCall",
      "type": "error"
    },
    {
      "inputs": [],
      "name": "UUPSUnauthorizedCallContext",
      "type": "error"
    },
    {
      "inputs": [
        {
          "internalType": "bytes32",
          "name": "slot",
          "type": "bytes32"
        }
      ],
      "name": "UUPSUnsupportedProxiableUUID",
      "type": "error"
    },
    {
      "anonymous": false,
      "inputs": [
        {
          "indexed": false,
          "internalType": "uint64",
          "name": "version",
          "type": "uint64"
        }
      ],
      "name": "Initialized",
      "type": "event"
    },
    {
      "anonymous": false,
      "inputs": [
        {
          "indexed": true,
          "internalType": "address",
          "name": "previousOwner",
          "type": "address"
        },
        {
          "indexed": true,
          "internalType": "address",
          "name": "newOwner",
          "type": "address"
        }
      ],
      "name": "OwnershipTransferred",
      "type": "event"
    },
    {
      "anonymous": false,
      "inputs": [
        {
          "indexed": true,
          "internalType": "address",
          "name": "implementation",
          "type": "address"
        }
      ],
      "name": "Upgraded",
      "type": "event"
    },
    {
      "inputs": [],
      "name": "UPGRADE_INTERFACE_VERSION",
      "outputs": [
        {
          "internalType": "string",
          "name": "",
          "type": "string"
        }
      ],
      "stateMutability": "view",
      "type": "function"
    },
    {
      "inputs": [],
      "name": "auction",
      "outputs": [
        {
          "internalType": "address",
          "name": "seller",
          "type": "address"
        },
        {
          "internalType": "uint256",
          "name": "startTime",
          "type": "uint256"
        },
        {
          "internalType": "uint256",
          "name": "endTime",
          "type": "uint256"
        },
        {
          "internalType": "uint256",
          "name": "duration",
          "type": "uint256"
        },
        {
          "internalType": "uint256",
          "name": "startPrice",
          "type": "uint256"
        },
        {
          "internalType": "address",
          "name": "highestBidder",
          "type": "address"
        },
        {
          "internalType": "uint256",
          "name": "highestBid",
          "type": "uint256"
        },
        {
          "internalType": "bool",
          "name": "ended",
          "type": "bool"
        },
        {
          "internalType": "address",
          "name": "payTokenType",
          "type": "address"
        },
        {
          "internalType": "uint256",
          "name": "tokenId",
          "type": "uint256"
        },
        {
          "internalType": "address",
          "name": "nftContractAddress",
          "type": "address"
        },
        {
          "internalType": "address",
          "name": "factoryAddress",
          "type": "address"
        },
        {
          "internalType": "uint256",
          "name": "auctionId",
          "type": "uint256"
        }
      ],
      "stateMutability": "view",
      "type": "function"
    },
    {
      "inputs": [
        {
          "internalType": "address",
          "name": "_payTokenType",
          "type": "address"
        },
        {
          "internalType": "uint256",
          "name": "_amount",
          "type": "uint256"
        }
      ],
      "name": "bid",
      "outputs": [],
      "stateMutability": "payable",
      "type": "function"
    },
    {
      "inputs": [],
      "name": "endAuction",
      "outputs": [],
      "stateMutability": "nonpayable",
      "type": "function"
    },
    {
      "inputs": [],
      "name": "getAuctionInfo",
      "outputs": [
        {
          "components": [
            {
              "internalType": "address",
              "name": "seller",
              "type": "address"
            },
            {
              "internalType": "uint256",
              "name": "startTime",
              "type": "uint256"
            },
            {
              "internalType": "uint256",
              "name": "endTime",
              "type": "uint256"
            },
            {
              "internalType": "uint256",
              "name": "duration",
              "type": "uint256"
            },
            {
              "internalType": "uint256",
              "name": "startPrice",
              "type": "uint256"
            },
            {
              "internalType": "address",
              "name": "highestBidder",
              "type": "address"
            },
            {
              "internalType": "uint256",
              "name": "highestBid",
              "type": "uint256"
            },
            {
              "internalType": "bool",
              "name": "ended",
              "type": "bool"
            },
            {
              "internalType": "address",
              "name": "payTokenType",
              "type": "address"
            },
            {
              "internalType": "uint256",
              "name": "tokenId",
              "type": "uint256"
            },
            {
              "internalType": "address",
              "name": "nftContractAddress",
              "type": "address"
            },
            {
              "internalType": "address",
              "name": "factoryAddress",
              "type": "address"
            },
            {
              "internalType": "uint256",
              "name": "auctionId",
              "type": "uint256"
            }
          ],
          "internalType": "struct NFTAuction.Auction",
          "name": "",
          "type": "tuple"
        }
      ],
      "stateMutability": "view",
      "type": "function"
    },
    {
      "inputs": [
        {
          "internalType": "address",
          "name": "tokenAddress",
          "type": "address"
        }
      ],
      "name": "getPriceFeed",
      "outputs": [
        {
          "internalType": "address",
          "name": "",
          "type": "address"
        }
      ],
      "stateMutability": "view",
      "type": "function"
    },
    {
      "inputs": [
        {
          "internalType": "address",
          "name": "_seller",
          "type": "address"
        },
        {
          "internalType": "uint256",
          "name": "_duration",
          "type": "uint256"
        },
        {
          "internalType": "uint256",
          "name": "_startPrice",
          "type": "uint256"
        },
        {
          "internalType": "address",
          "name": "_payTokenType",
          "type": "address"
        },
        {
          "internalType": "uint256",
          "name": "_tokenId",
          "type": "uint256"
        },
        {
          "internalType": "address",
          "name": "_nftContractAddress",
          "type": "address"
        },
        {
          "internalType": "address",
          "name": "_factoryAddress",
          "type": "address"
        },
        {
          "internalType": "uint256",
          "name": "_auctionId",
          "type": "uint256"
        }
      ],
      "name": "initialize",
      "outputs": [],
      "stateMutability": "nonpayable",
      "type": "function"
    },
    {
      "inputs": [
        {
          "internalType": "address",
          "name": "",
          "type": "address"
        },
        {
          "internalType": "address",
          "name": "",
          "type": "address"
        },
        {
          "internalType": "uint256",
          "name": "",
          "type": "uint256"
        },
        {
          "internalType": "bytes",
          "name": "",
          "type": "bytes"
        }
      ],
      "name": "onERC721Received",
      "outputs": [
        {
          "internalType": "bytes4",
          "name": "",
          "type": "bytes4"
        }
      ],
      "stateMutability": "pure",
      "type": "function"
    },
    {
      "inputs": [],
      "name": "owner",
      "outputs": [
        {
          "internalType": "address",
          "name": "",
          "type": "address"
        }
      ],
      "stateMutability": "view",
      "type": "function"
    },
    {
      "inputs": [
        {
          "internalType": "address",
          "name": "",
          "type": "address"
        }
      ],
      "name": "priceFeeds",
      "outputs": [
        {
          "internalType": "contract AggregatorV3Interface",
          "name": "",
          "type": "address"
        }
      ],
      "stateMutability": "view",
      "type": "function"
    },
    {
      "inputs": [],
      "name": "proxiableUUID",
      "outputs": [
        {
          "internalType": "bytes32",
          "name": "",
          "type": "bytes32"
        }
      ],
      "stateMutability": "view",
      "type": "function"
    },
    {
      "inputs": [],
      "name": "renounceOwnership",
      "outputs": [],
      "stateMutability": "nonpayable",
      "type": "function"
    },
    {
      "inputs": [
        {
          "internalType": "address",
          "name": "tokenAddress",
          "type": "address"
        },
        {
          "internalType": "address",
          "name": "priceFeedAddress",
          "type": "address"
        }
      ],
      "name": "setPriceFeed",
      "outputs": [],
      "stateMutability": "nonpayable",
      "type": "function"
    },
    {
      "inputs": [
        {
          "internalType": "address",
          "name": "newOwner",
          "type": "address"
        }
      ],
      "name": "transferOwnership",
      "outputs": [],
      "stateMutability": "nonpayable",
      "type": "function"
    },
    {
      "inputs": [
        {
          "internalType": "address",
          "name": "newImplementation",
          "type": "address"
        },
        {
          "internalType": "bytes",
          "name": "data",
          "type": "bytes"
        }
      ],
      "name": "upgradeToAndCall",
      "outputs": [],
      "stateMutability": "payable",
      "type": "function"
    }
  ],
  "bytecode": "0x60a080604052346029573060805261205e908161002f8239608051818181610fa301526110740152f35b600080fdfe608080604052600436101561001357600080fd5b600090813560e01c908163150b7a0214611748575080633e87deea146112495780634f1ef28614610ff857806352d1902d14610f9057806359d667a5146109b75780635b6cca8014610781578063715018a61461094d57806376e11286146108a65780637d9f6db5146107f85780638da5cb5b146107c25780639dcb511a14610781578063ad3cb1cc14610734578063d94a350514610585578063f2fde38b1461055b5763fe67a54b146100c657600080fd5b3461041d578060031936011261041d5760075460ff8116610522576100f0600154600354906118aa565b42106104e95760ff191660011760075560095460055482916001600160a01b039081169116156104305760018060a01b036005541661017281604051610137606082611824565b602381527f686173206269646465722c207472616e73666572206e667420746f206269646460208201526232b91d60e91b6040820152611eca565b600854823b1561042b57604051632142170760e11b81523060048201526001600160a01b0392909216602483015260448201529082908290606490829084905af1801561042057610408575b505060018060a01b0381541660018060a01b0360075460081c166006546002600080516020611fe983398151915254146103f9576002600080516020611fe98339815191525582156103b457801561037a5783918061028657508180809260409561025e81885161022f8a82611824565b601781527f7472616e736665722065746820746f206269646465723a0000000000000000006020820152611eca565b82f11561027c57505b6001600080516020611fe98339815191525580f35b51903d90823e3d90fd5b915060209060446040946102ce8187516102a08982611824565b601981527f7472616e7366657220657263323020746f206269646465723a0000000000000087820152611eca565b868651958694859363a9059cbb60e01b8552600485015260248401525af190811561036e57839161033f575b50156103065750610267565b5162461bcd60e51b8152602060048201526013602482015272115490cc8c081c99599d5b990819985a5b1959606a1b6044820152606490fd5b610361915060203d602011610367575b6103598183611824565b8101906118cd565b386102fa565b503d61034f565b505051903d90823e3d90fd5b60405162461bcd60e51b81526020600482015260126024820152710616d6f756e74206d757374206265203e20360741b6044820152606490fd5b60405162461bcd60e51b815260206004820152601a60248201527f526563697069656e742061646472657373206e6f7420626520300000000000006044820152606490fd5b633ee5aeb560e01b8452600484fd5b8161041291611824565b61041d5780386101be565b80fd5b6040513d84823e3d90fd5b505050fd5b9060018060a01b0381541661047c8160405161044d604082611824565b602081527f6e6f206269646465722c2072657475726e206e667420746f2073656c6c65723a6020820152611eca565b600854833b156104e557604051632142170760e11b81523060048201526001600160a01b0392909216602483015260448201529181908390606490829084905af180156104d8576104cc57505080f35b6104d591611824565b80f35b50604051903d90823e3d90fd5b8280fd5b60405162461bcd60e51b8152602060048201526011602482015270185d58dd1a5bdb881b9bdd08195b991959607a1b6044820152606490fd5b60405162461bcd60e51b8152602060048201526011602482015270185d58dd1a5bdb881a185908195b991959607a1b6044820152606490fd5b503461041d57602036600319011261041d576104d56105786117c0565b610580611e94565b6118e5565b503461041d578060031936011261041d57806101a0916101806040516105aa816117f1565b8281528260208201528260408201528260608201528260808201528260a08201528260c08201528260e082015282610100820152826101208201528261014082015282610160820152015260405190610602826117f1565b60018060a01b03905416908181526001546020820190815260025460408301908152600354606084019081526004546080850190815260018060a01b03600554169060a0860191825260065460c087019081526007549260e088019260ff85161515845261010089019460018060a01b039060081c168552600854956101208a0196875260018060a01b0360095416976101408b0198895260018060a01b03600a5416996101608c019a8b52610180600b549c019b8c526040519c8d525160208d01525160408c01525160608b01525160808a015260018060a01b0390511660a08901525160c088015251151560e087015260018060a01b039051166101008601525161012085015260018060a01b0390511661014084015260018060a01b0390511661016083015251610180820152f35b503461041d578060031936011261041d575061077d604051610757604082611824565b60058152640352e302e360dc1b6020820152604051918291602083526020830190611885565b0390f35b503461041d57602036600319011261041d576020906001600160a01b036107a66117c0565b168152600c8252604060018060a01b0391205416604051908152f35b503461041d578060031936011261041d57600080516020611fa9833981519152546040516001600160a01b039091168152602090f35b503461041d578060031936011261041d575460015460025460035460045460055460065460075460088054600954600a54600b54604080516001600160a01b039e8f168152602081019d909d528c019a909a5260608b019890985260808a019690965293891660a089015260c088019290925260ff8116151560e0880152901c861661010086015261012085015284166101408401529092166101608201526101808101919091526101a090f35b503461041d57604036600319011261041d576108c06117c0565b6108c86117db565b6108d0611e94565b6001600160a01b0316908115610908576001600160a01b03168252600c6020526040822080546001600160a01b031916909117905580f35b60405162461bcd60e51b815260206004820152601a60248201527f496e76616c6964207072696365206665656420616464726573730000000000006044820152606490fd5b503461041d578060031936011261041d57610966611e94565b600080516020611fa983398151915280546001600160a01b0319811690915581906001600160a01b03167f8be0079c531659141344cd1fd0a4f28419497f9722a3daafe3b4186f6b6457e08280a380f35b50604036600319011261041d576109cc6117c0565b6024356109de600154600354906118aa565b421015610f575782546001600160a01b03163314610f1e576001600160a01b0382168015908115610e1357823403610dce575b610a19611a99565b91604092610a4a818551610a2d8782611824565b600b81526a1a1a59da1d195cdd1554d160aa1b6020820152611c00565b828752600c602052838720546001600160a01b031615610d8b57610a6e8587611cd0565b610a9b818651610a7e8882611824565b600b81526a62696455534456616c756560a81b6020820152611c00565b1115610d475715610ca5575b506005546001600160a01b0316801590811580610c9a575b610b04575b5050600580546001600160a01b031916331790555060065560078054610100600160a81b03191660089290921b610100600160a81b031691909117905580f35b60018060a01b0360075460081c16600654926002600080516020611fe98339815191525414610c8b576002600080516020611fe983398151915255610c47578215610c0e578692919080610b9457508280928192610b6881885161022f8a82611824565b82f115610b8b57505b6001600080516020611fe983398151915255388080610ac4565b513d84823e3d90fd5b926020929160449150610bad8187516102a08982611824565b888651958694859363a9059cbb60e01b8552600485015260248401525af1908115610c04578591610be5575b50156103065750610b71565b610bfe915060203d602011610367576103598183611824565b38610bd9565b82513d87823e3d90fd5b835162461bcd60e51b81526020600482015260126024820152710616d6f756e74206d757374206265203e20360741b6044820152606490fd5b835162461bcd60e51b815260206004820152601a60248201527f526563697069656e742061646472657373206e6f7420626520300000000000006044820152606490fd5b633ee5aeb560e01b8852600488fd5b506006541515610abf565b81516323b872dd60e01b815233600482015230602482015260448101849052906020908290606490829089905af1908115610c04578591610d28575b5015610ced5738610aa7565b5162461bcd60e51b8152602060048201526015602482015274115490cc8c081d1c985b9cd9995c8819985a5b1959605a1b6044820152606490fd5b610d41915060203d602011610367576103598183611824565b38610ce1565b825162461bcd60e51b815260206004820152601c60248201527f62696420616d6f756e74206e656564203e2068696768657374426964000000006044820152606490fd5b6064845162461bcd60e51b815260206004820152602060248201527f50726963652066656564206e6f742073657420666f722062696420746f6b656e6044820152fd5b60405162461bcd60e51b815260206004820152601f60248201527f45544820626964206e6565642076616c756520657175616c20616d6f756e74006044820152606490fd5b34610ed957604051636eb1769f60e11b8152336004820152306024820152602081604481855afa8015610ece5784918791610e95575b501015610a115760405162461bcd60e51b815260206004820152601a60248201527f455243323020616c6c6f77616e6365206e6f7420656e6f7567680000000000006044820152606490fd5b9150506020813d602011610ec6575b81610eb160209383611824565b81010312610ec25783905138610e49565b8580fd5b3d9150610ea4565b6040513d88823e3d90fd5b60405162461bcd60e51b815260206004820152601b60248201527f455243323020626964206e656564206e6f742073656e642045544800000000006044820152606490fd5b60405162461bcd60e51b815260206004820152601160248201527014d95b1b195c8818d85b9b9bdd08189a59607a1b6044820152606490fd5b60405162461bcd60e51b8152602060048201526011602482015270105d58dd1a5bdb881a185cc8195b991959607a1b6044820152606490fd5b503461041d578060031936011261041d577f00000000000000000000000000000000000000000000000000000000000000006001600160a01b03163003610fe9576020604051600080516020611fc98339815191528152f35b63703e46dd60e11b8152600490fd5b50604036600319011261041d5761100d6117c0565b6024359067ffffffffffffffff82116104e557366023830112156104e5578160040135908361103b83611846565b936110496040519586611824565b838552602085019336602482840101116104e557806024602093018637850101526001600160a01b037f000000000000000000000000000000000000000000000000000000000000000016308114908115611226575b50611217576110ac611e94565b6040516352d1902d60e01b81526001600160a01b0382169390602081600481885afa8691816111df575b506110ef57634c9c8ce360e01b86526004859052602486fd5b9384600080516020611fc98339815191528796036111cd5750823b156111bb57600080516020611fc983398151915280546001600160a01b031916821790558491907fbc7cd75a20ee27fd9adebab32041f755214dbc6bffa90cc0225b39da2e5c2d3b8380a28051156111a0576111949382915190845af43d15611198573d9161117883611846565b926111866040519485611824565b83523d85602085013e611f47565b5080f35b606091611f47565b50505050346111ac5780f35b63b398979f60e01b8152600490fd5b634c9c8ce360e01b8552600452602484fd5b632a87526960e21b8652600452602485fd5b9091506020813d60201161120f575b816111fb60209383611824565b8101031261120b575190386110d6565b8680fd5b3d91506111ee565b63703e46dd60e11b8452600484fd5b600080516020611fc9833981519152546001600160a01b0316141590503861109f565b503461041d5761010036600319011261041d576112646117c0565b6064356001600160a01b038116906024359060443590838103610ec25760a4356001600160a01b0381169260843592918490036117445760c4356001600160a01b03811695908690036117405760e43596600080516020612009833981519152549860ff8a60401c16159967ffffffffffffffff811680159081611738575b600114908161172e575b159081611725575b506117165767ffffffffffffffff198116600117600080516020612009833981519152558a6116e9575b50611328611f19565b611330611f19565b611339336118e5565b611341611f19565b611349611f19565b611351611f19565b6001600080516020611fe9833981519152556001600160a01b03169081156116ab578615611670578215611620576040516331a9108f60e11b8152600481018790526020816024818b5afa80156116155783918d916115cc575b506001600160a01b0316036115875761018089918c8052600c60205260408d2073694aa1769357215de4fac081bf1f309adc3253066001600160601b0360a01b82541617905573a2f78ab2355fe2f984d808b5cee7fd0a93d5270e8d52600c60205260408d2073a2f78ab2355fe2f984d808b5cee7fd0a93d5270e6001600160601b0360a01b82541617905560405190611444826117f1565b8482524260208301528d60408301528560608301528660808301528d60a08301528d60c08301528d60e083015261010082015287610120820152886101408201528961016082015201526001600160601b0360a01b8a541617895542600155886002556003556004556001600160601b0360a01b600554166005558660065560ff196007541660075560075490610100600160a81b0390610100600160a81b039060081b161690610100600160a81b031916176007556008556001600160601b0360a01b60095416176009556001600160601b0360a01b600a541617600a55600b5561152d5780f35b68ff0000000000000000196000805160206120098339815191525416600080516020612009833981519152557fc7f505b2f371ae2175ee4913f4499e1f2633a7b5936321eed1cdaeb6115181d2602060405160018152a180f35b60405162461bcd60e51b815260206004820152601b60248201527f53656c6c657220646f6573206e6f74206f776e20746865204e465400000000006044820152606490fd5b9150506020813d60201161160d575b816115e860209383611824565b8101031261160957516001600160a01b0381168103611609578290386113ab565b8b80fd5b3d91506115db565b6040513d8e823e3d90fd5b60405162461bcd60e51b815260206004820152602260248201527f4475726174696f6e206d7573742062652067726561746572207468616e207a65604482015261726f60f01b6064820152608490fd5b60405162461bcd60e51b8152602060048201526013602482015272496e76616c6964204e4654206164647265737360681b6044820152606490fd5b60405162461bcd60e51b8152602060048201526016602482015275496e76616c69642073656c6c6572206164647265737360501b6044820152606490fd5b68ffffffffffffffffff19166801000000000000000117600080516020612009833981519152553861131f565b63f92ee8a960e01b8c5260048cfd5b905015386112f5565b303b1591506112ed565b8c91506112e3565b8880fd5b8780fd5b9050346117b85760803660031901126117b8576117636117c0565b5061176c6117db565b5060643567ffffffffffffffff81116104e557366023820112156104e557806004013567ffffffffffffffff81116117bc57369101602401116117b857630a85bd0160e11b8152602090f35b5080fd5b8380fd5b600435906001600160a01b03821682036117d657565b600080fd5b602435906001600160a01b03821682036117d657565b6101a0810190811067ffffffffffffffff82111761180e57604052565b634e487b7160e01b600052604160045260246000fd5b90601f8019910116810190811067ffffffffffffffff82111761180e57604052565b67ffffffffffffffff811161180e57601f01601f191660200190565b60005b8381106118755750506000910152565b8181015183820152602001611865565b9060209161189e81518092818552858086019101611862565b601f01601f1916010190565b919082018092116118b757565b634e487b7160e01b600052601160045260246000fd5b908160209103126117d6575180151581036117d65790565b6001600160a01b0316801561194557600080516020611fa983398151915280546001600160a01b0319811683179091556001600160a01b03167f8be0079c531659141344cd1fd0a4f28419497f9722a3daafe3b4186f6b6457e0600080a3565b631e4fbdf760e01b600052600060045260246000fd5b1561196257565b60405162461bcd60e51b815260206004820152601f60248201527f50726963652066656564206e6f742073657420666f7220706179546f6b656e006044820152606490fd5b519069ffffffffffffffffffff821682036117d657565b908160a09103126117d6576119d2816119a7565b916020820151916040810151916119f06080606084015193016119a7565b90565b156119fa57565b60405162461bcd60e51b815260206004820152601760248201527f496e76616c69642070726963652066726f6d20666565640000000000000000006044820152606490fd5b908160209103126117d6575160ff811681036117d65790565b818102929181159184041417156118b757565b604d81116118b757600a0a90565b8115611a83570490565b634e487b7160e01b600052601260045260246000fd5b60075460081c6001600160a01b039081166000818152600c602052604090205490911690611ac882151561195b565b604051633fabe5a360e21b81529160a083600481845afa928315611bb857600093611bc4575b506020600491611b00600086136119f3565b60405163313ce56760e01b815292839182905afa8015611bb85760ff91600091611b89575b5016906004549060018060a01b0360055416611b7f575b611b6957611b4a9192611a58565b90600c019081600c116118b757611b636119f092611a6b565b90611a79565b611b79611b63916119f094611a58565b91611a6b565b6006549150611b3c565b611bab915060203d602011611bb1575b611ba38183611824565b810190611a3f565b38611b25565b503d611b99565b6040513d6000823e3d90fd5b6004919350611bec60209160a03d60a011611bf9575b611be48183611824565b8101906119be565b5050509050939150611aee565b503d611bda565b611c30611c44600093928493604051938492632d839cb360e21b6020850152604060248501526064840190611885565b90604483015203601f198101835282611824565b6020815191016a636f6e736f6c652e6c6f675afa50565b600060443d106119f0576040513d600319016004823e8051913d602484011167ffffffffffffffff841117611cca578282019283519167ffffffffffffffff8311611cc2573d84016003190185840160200111611cc257506119f092910160200190611824565b949350505050565b92915050565b6001600160a01b039081166000818152600c602052604090205490911691611cf983151561195b565b604051633fabe5a360e21b81529260a084600481845afa60009481611e6e575b50611e0857600060033d11611df6575b6308c379a014611d72575b60405162461bcd60e51b8152602060048201526016602482015275141c9a58d948199959590818d85b1b0819985a5b195960521b6044820152606490fd5b611d7a611c5b565b80611d855750611d34565b611df290611dd260326040518093710283934b1b2903332b2b21032b93937b91d160751b6020830152611dc18151809260208686019101611862565b81010301601f198101835282611824565b60405162461bcd60e51b8152602060048201529182916024830190611885565b0390fd5b5060046000803e60005160e01c611d29565b6020600491611e19600087136119f3565b60405163313ce56760e01b815292839182905afa8015611bb85760ff91600091611e4f575b501691611b6957611b4a9192611a58565b611e68915060203d602011611bb157611ba38183611824565b38611e3e565b611e8891955060a03d60a011611bf957611be48183611824565b50505090509338611d19565b600080516020611fa9833981519152546001600160a01b03163303611eb557565b63118cdaa760e01b6000523360045260246000fd5b611efa611c4460009392849360405193849263319af33360e01b6020850152604060248501526064840190611885565b6001600160a01b0391909116604483015203601f198101835282611824565b60ff6000805160206120098339815191525460401c1615611f3657565b631afcd79f60e31b60005260046000fd5b90611f6d5750805115611f5c57602081519101fd5b63d6bda27560e01b60005260046000fd5b81511580611f9f575b611f7e575090565b639996b31560e01b60009081526001600160a01b0391909116600452602490fd5b50803b15611f7656fe9016d09d72d40fdae2fd8ceac6b6234c7706214fd39c1cd1e609a0528c199300360894a13ba1a3210667c828492db98dca3e2076cc3735a920a3ca505d382bbc9b779b17422d0df92223018b32b4d1fa46e071723d6817e2486d003becc55f00f0c57e16840df040f15088dc2f81fe391c3923bec73e23a9662efc9c229c6a00a264697066735822122033e63c802614d98092133e1cf86e65dde49db351488841d50bf8a9df23a0d0fe64736f6c634300081c0033",
  "linkReferences": {},
  "deployedLinkReferences": {}
}